{
  "contractName": "DummyUser",
  "abi": [
    {
      "inputs": [
        {
          "internalType": "address",
          "name": "beamToken",
          "type": "address"
        }
      ],
      "stateMutability": "nonpayable",
      "type": "constructor"
    },
    {
      "anonymous": false,
      "inputs": [
        {
          "indexed": false,
          "internalType": "address",
          "name": "sender",
          "type": "address"
        },
        {
          "indexed": false,
          "internalType": "uint256",
          "name": "value",
          "type": "uint256"
        },
        {
          "indexed": false,
          "internalType": "bytes",
          "name": "pubKey",
          "type": "bytes"
        }
      ],
      "name": "lockEvent",
      "type": "event"
    },
    {
      "inputs": [
        {
          "internalType": "uint256",
          "name": "value",
          "type": "uint256"
        },
        {
          "internalType": "bytes",
          "name": "pubKey",
          "type": "bytes"
        }
      ],
      "name": "lock",
      "outputs": [],
      "stateMutability": "nonpayable",
      "type": "function"
    }
  ],
  "bytecode": "0x608060405234801561001057600080fd5b5060405161065b38038061065b8339818101604052602081101561003357600080fd5b5051600080546001600160a01b039092166001600160a01b03199092169190911790556105f6806100656000396000f3fe608060405234801561001057600080fd5b506004361061002b5760003560e01c8063d8f7c83614610030575b600080fd5b6100dd6004803603604081101561004657600080fd5b8135919081019060408101602082013564010000000081111561006857600080fd5b82018360208201111561007a57600080fd5b8035906020019184600183028401116401000000008311171561009c57600080fd5b91908080601f0160208091040260200160405190810160405280939291908181526020018383808284376000920191909152509295506100df945050505050565b005b6000546101049073ffffffffffffffffffffffffffffffffffffffff163330856101c7565b7f2ee2b75bef6a1e98db7f58994a8997fc42664e7d47f2116cec5cd82dc67233ca338383604051808473ffffffffffffffffffffffffffffffffffffffff16815260200183815260200180602001828103825283818151815260200191508051906020019080838360005b8381101561018757818101518382015260200161016f565b50505050905090810190601f1680156101b45780820380516001836020036101000a031916815260200191505b5094505050505060405180910390a15050565b6040805173ffffffffffffffffffffffffffffffffffffffff80861660248301528416604482015260648082018490528251808303909101815260849091019091526020810180517bffffffffffffffffffffffffffffffffffffffffffffffffffffffff167f23b872dd0000000000000000000000000000000000000000000000000000000017905261025c908590610262565b50505050565b60606102c4826040518060400160405280602081526020017f5361666545524332303a206c6f772d6c6576656c2063616c6c206661696c65648152508573ffffffffffffffffffffffffffffffffffffffff166103259092919063ffffffff16565b805190915015610320578080602001905160208110156102e357600080fd5b50516103205760405162461bcd60e51b815260040180806020018281038252602a815260200180610597602a913960400191505060405180910390fd5b505050565b6060610334848460008561033e565b90505b9392505050565b606030318311156103805760405162461bcd60e51b81526004018080602001828103825260268152602001806105716026913960400191505060405180910390fd5b610389856104c6565b6103da576040805162461bcd60e51b815260206004820152601d60248201527f416464726573733a2063616c6c20746f206e6f6e2d636f6e7472616374000000604482015290519081900360640190fd5b600060608673ffffffffffffffffffffffffffffffffffffffff1685876040518082805190602001908083835b6020831061044457805182527fffffffffffffffffffffffffffffffffffffffffffffffffffffffffffffffe09092019160209182019101610407565b6001836020036101000a03801982511681845116808217855250505050505090500191505060006040518083038185875af1925050503d80600081146104a6576040519150601f19603f3d011682016040523d82523d6000602084013e6104ab565b606091505b50915091506104bb8282866104cc565b979650505050505050565b3b151590565b606083156104db575081610337565b8251156104eb5782518084602001fd5b8160405162461bcd60e51b81526004018080602001828103825283818151815260200191508051906020019080838360005b8381101561053557818101518382015260200161051d565b50505050905090810190601f1680156105625780820380516001836020036101000a031916815260200191505b509250505060405180910390fdfe416464726573733a20696e73756666696369656e742062616c616e636520666f722063616c6c5361666545524332303a204552433230206f7065726174696f6e20646964206e6f742073756363656564a26469706673582212208426ff3fa7cd277a5c35fb1233de1077f9e07a1c82284dab1be23915df4e3f1c64736f6c63430007020033",
  "immutableReferences": {},
  "source": "// SPDX-License-Identifier: MIT\r\npragma solidity ^0.7.2;\r\n\r\nimport \"./Pipe.sol\";\r\nimport \"openzeppelin-solidity/contracts/math/SafeMath.sol\";\r\nimport \"openzeppelin-solidity/contracts/utils/Address.sol\";\r\nimport \"openzeppelin-solidity/contracts/token/ERC20/SafeERC20.sol\";\r\nimport \"openzeppelin-solidity/contracts/token/ERC20/IERC20.sol\";\r\n\r\ncontract DummyUser {\r\n    using SafeERC20 for IERC20;\r\n    address m_beamToken;\r\n\r\n    event lockEvent(address sender, uint256 value, bytes pubKey);\r\n\r\n    constructor(address beamToken) {\r\n        m_beamToken = beamToken;\r\n    }\r\n\r\n    function lock(uint256 value, bytes memory pubKey) public {\r\n        IERC20(m_beamToken).safeTransferFrom(msg.sender, address(this), value);\r\n\r\n        emit lockEvent(msg.sender, value, pubKey);\r\n    }\r\n}",
  "sourcePath": "C:/projects/ethereum/eth_pipe/contracts/DummyUser.sol",
  "compiler": {
    "name": "solc",
    "version": "0.7.2+commit.51b20bc0.Emscripten.clang"
  },
  "schemaVersion": "3.4.1",
  "updatedAt": "2021-06-18T12:21:05.566Z",
  "networkType": "ethereum",
  "devdoc": {
    "kind": "dev",
    "methods": {},
    "version": 1
  },
  "userdoc": {
    "kind": "user",
    "methods": {},
    "version": 1
  }
}