{
  "contractName": "DummyUser",
  "abi": [
    {
      "inputs": [
        {
          "internalType": "address",
          "name": "beamToken",
          "type": "address"
        }
      ],
      "stateMutability": "nonpayable",
      "type": "constructor"
    },
    {
      "anonymous": false,
      "inputs": [
        {
          "indexed": false,
          "internalType": "address",
          "name": "sender",
          "type": "address"
        },
        {
          "indexed": false,
          "internalType": "uint256",
          "name": "value",
          "type": "uint256"
        }
      ],
      "name": "lockEvent",
      "type": "event"
    },
    {
      "inputs": [
        {
          "internalType": "uint256",
          "name": "value",
          "type": "uint256"
        }
      ],
      "name": "lock",
      "outputs": [],
      "stateMutability": "nonpayable",
      "type": "function"
    }
  ],
  "bytecode": "0x608060405234801561001057600080fd5b506040516105463803806105468339818101604052602081101561003357600080fd5b5051600080546001600160a01b039092166001600160a01b03199092169190911790556104e1806100656000396000f3fe608060405234801561001057600080fd5b506004361061002b5760003560e01c8063dd46706414610030575b600080fd5b61004d6004803603602081101561004657600080fd5b503561004f565b005b6000546100749073ffffffffffffffffffffffffffffffffffffffff163330846100b2565b604080513381526020810183905281517fd8a747582aa9f33dbf70f01942c1902da045a791a62c99e7cf9b407135ecd306929181900390910190a150565b6040805173ffffffffffffffffffffffffffffffffffffffff80861660248301528416604482015260648082018490528251808303909101815260849091019091526020810180517bffffffffffffffffffffffffffffffffffffffffffffffffffffffff167f23b872dd0000000000000000000000000000000000000000000000000000000017905261014790859061014d565b50505050565b60606101af826040518060400160405280602081526020017f5361666545524332303a206c6f772d6c6576656c2063616c6c206661696c65648152508573ffffffffffffffffffffffffffffffffffffffff166102109092919063ffffffff16565b80519091501561020b578080602001905160208110156101ce57600080fd5b505161020b5760405162461bcd60e51b815260040180806020018281038252602a815260200180610482602a913960400191505060405180910390fd5b505050565b606061021f8484600085610229565b90505b9392505050565b6060303183111561026b5760405162461bcd60e51b815260040180806020018281038252602681526020018061045c6026913960400191505060405180910390fd5b610274856103b1565b6102c5576040805162461bcd60e51b815260206004820152601d60248201527f416464726573733a2063616c6c20746f206e6f6e2d636f6e7472616374000000604482015290519081900360640190fd5b600060608673ffffffffffffffffffffffffffffffffffffffff1685876040518082805190602001908083835b6020831061032f57805182527fffffffffffffffffffffffffffffffffffffffffffffffffffffffffffffffe090920191602091820191016102f2565b6001836020036101000a03801982511681845116808217855250505050505090500191505060006040518083038185875af1925050503d8060008114610391576040519150601f19603f3d011682016040523d82523d6000602084013e610396565b606091505b50915091506103a68282866103b7565b979650505050505050565b3b151590565b606083156103c6575081610222565b8251156103d65782518084602001fd5b8160405162461bcd60e51b81526004018080602001828103825283818151815260200191508051906020019080838360005b83811015610420578181015183820152602001610408565b50505050905090810190601f16801561044d5780820380516001836020036101000a031916815260200191505b509250505060405180910390fdfe416464726573733a20696e73756666696369656e742062616c616e636520666f722063616c6c5361666545524332303a204552433230206f7065726174696f6e20646964206e6f742073756363656564a26469706673582212209a6282d8c4b167e894a6590bab2eb67fad5719f7de52fcd53177d150e2b5266464736f6c63430007020033",
  "immutableReferences": {},
  "source": "// SPDX-License-Identifier: MIT\r\npragma solidity ^0.7.2;\r\n\r\nimport \"./Pipe.sol\";\r\nimport \"openzeppelin-solidity/contracts/math/SafeMath.sol\";\r\nimport \"openzeppelin-solidity/contracts/utils/Address.sol\";\r\nimport \"openzeppelin-solidity/contracts/token/ERC20/SafeERC20.sol\";\r\nimport \"openzeppelin-solidity/contracts/token/ERC20/IERC20.sol\";\r\n\r\ncontract DummyUser {\r\n    using SafeERC20 for IERC20;\r\n    address m_beamToken;\r\n\r\n    event lockEvent(address sender, uint256 value);\r\n\r\n    constructor(address beamToken) {\r\n        m_beamToken = beamToken;\r\n    }\r\n\r\n    function lock(uint256 value) public {\r\n        IERC20(m_beamToken).safeTransferFrom(msg.sender, address(this), value);\r\n\r\n        emit lockEvent(msg.sender, value);\r\n    }\r\n}",
  "sourcePath": "C:/projects/ethereum/eth_pipe/contracts/DummyUser.sol",
  "compiler": {
    "name": "solc",
    "version": "0.7.2+commit.51b20bc0.Emscripten.clang"
  },
  "schemaVersion": "3.4.1",
  "updatedAt": "2021-06-17T05:53:38.864Z",
  "networkType": "ethereum",
  "devdoc": {
    "kind": "dev",
    "methods": {},
    "version": 1
  },
  "userdoc": {
    "kind": "user",
    "methods": {},
    "version": 1
  }
}