{
  "contractName": "Pipe",
  "abi": [
    {
      "inputs": [
        {
          "internalType": "address",
          "name": "tokenAddress",
          "type": "address"
        },
        {
          "internalType": "address",
          "name": "relayerAddress",
          "type": "address"
        }
      ],
      "stateMutability": "nonpayable",
      "type": "constructor"
    },
    {
      "anonymous": false,
      "inputs": [
        {
          "indexed": false,
          "internalType": "uint64",
          "name": "msgId",
          "type": "uint64"
        },
        {
          "indexed": false,
          "internalType": "uint64",
          "name": "amount",
          "type": "uint64"
        },
        {
          "indexed": false,
          "internalType": "uint64",
          "name": "relayerFee",
          "type": "uint64"
        },
        {
          "indexed": false,
          "internalType": "bytes",
          "name": "receiver",
          "type": "bytes"
        }
      ],
      "name": "NewLocalMessage",
      "type": "event"
    },
    {
      "inputs": [
        {
          "internalType": "address",
          "name": "relayerAddress",
          "type": "address"
        }
      ],
      "name": "setRelayer",
      "outputs": [],
      "stateMutability": "nonpayable",
      "type": "function"
    },
    {
      "inputs": [
        {
          "internalType": "uint64",
          "name": "msgId",
          "type": "uint64"
        },
        {
          "internalType": "uint64",
          "name": "relayerFee",
          "type": "uint64"
        },
        {
          "internalType": "uint64",
          "name": "amount",
          "type": "uint64"
        },
        {
          "internalType": "address",
          "name": "receiver",
          "type": "address"
        }
      ],
      "name": "processRemoteMessage",
      "outputs": [],
      "stateMutability": "nonpayable",
      "type": "function"
    },
    {
      "inputs": [
        {
          "internalType": "uint64",
          "name": "value",
          "type": "uint64"
        },
        {
          "internalType": "uint64",
          "name": "relayerFee",
          "type": "uint64"
        },
        {
          "internalType": "bytes",
          "name": "receiverBeamPubkey",
          "type": "bytes"
        }
      ],
      "name": "sendFunds",
      "outputs": [],
      "stateMutability": "nonpayable",
      "type": "function"
    }
  ],
  "bytecode": "0x608060405234801561001057600080fd5b506040516109c43803806109c48339818101604052604081101561003357600080fd5b50805160209091015160008054600160201b600160c01b0319166401000000006001600160a01b0394851602178155600180546001600160a01b0319169390921692909217905561093a90819061008a90396000f3fe608060405234801561001057600080fd5b50600436106100415760003560e01c80630299c7dd146100465780635629ebc1146101085780636548e9bc1461014f575b600080fd5b6101066004803603606081101561005c57600080fd5b67ffffffffffffffff823581169260208101359091169181019060608101604082013564010000000081111561009157600080fd5b8201836020820111156100a357600080fd5b803590602001918460018302840111640100000000831117156100c557600080fd5b91908080601f016020809104026020016040519081016040528093929190818152602001838380828437600092019190915250929550610175945050505050565b005b6101066004803603608081101561011e57600080fd5b50803567ffffffffffffffff90811691602081013582169160408201351690606001356001600160a01b03166102ec565b6101066004803603602081101561016557600080fd5b50356001600160a01b0316610454565b80516021146101b55760405162461bcd60e51b815260040180806020018281038252602a8152602001806108b1602a913960400191505060405180910390fd5b60005482840167ffffffffffffffff16906101e39064010000000090046001600160a01b031633308461048e565b7ff757db2d5118aa3c0442ccbd99e93d412e699577f67bbd30eb641bfd036f775160008081819054906101000a900463ffffffff168092919060010191906101000a81548163ffffffff021916908363ffffffff160217905550858585604051808563ffffffff1681526020018467ffffffffffffffff1681526020018367ffffffffffffffff16815260200180602001828103825283818151815260200191508051906020019080838360005b838110156102a9578181015183820152602001610291565b50505050905090810190601f1680156102d65780820380516001836020036101000a031916815260200191505b509550505050505060405180910390a150505050565b6001546001600160a01b0316331461034b576040805162461bcd60e51b815260206004820152601360248201527f496e76616c6964206d73672073656e6465722e00000000000000000000000000604482015290519081900360640190fd5b67ffffffffffffffff841660009081526002602052604090205460ff16156103ba576040805162461bcd60e51b815260206004820152601660248201527f4d736720616c72656164792070726f6365737365642e00000000000000000000604482015290519081900360640190fd5b67ffffffffffffffff808516600090815260026020526040812080547fffffffffffffffffffffffffffffffffffffffffffffffffffffffffffffff00166001908117909155549054610425926401000000009091046001600160a01b039081169216908616610516565b60005461044e9064010000000090046001600160a01b03168267ffffffffffffffff8516610516565b50505050565b600180547fffffffffffffffffffffffff0000000000000000000000000000000000000000166001600160a01b0392909216919091179055565b604080516001600160a01b0380861660248301528416604482015260648082018490528251808303909101815260849091019091526020810180517bffffffffffffffffffffffffffffffffffffffffffffffffffffffff167f23b872dd0000000000000000000000000000000000000000000000000000000017905261044e90859061059b565b604080516001600160a01b038416602482015260448082018490528251808303909101815260649091019091526020810180517bffffffffffffffffffffffffffffffffffffffffffffffffffffffff167fa9059cbb0000000000000000000000000000000000000000000000000000000017905261059690849061059b565b505050565b60606105f0826040518060400160405280602081526020017f5361666545524332303a206c6f772d6c6576656c2063616c6c206661696c6564815250856001600160a01b031661064c9092919063ffffffff16565b8051909150156105965780806020019051602081101561060f57600080fd5b50516105965760405162461bcd60e51b815260040180806020018281038252602a8152602001806108db602a913960400191505060405180910390fd5b606061065b8484600085610665565b90505b9392505050565b606030318311156106a75760405162461bcd60e51b815260040180806020018281038252602681526020018061088b6026913960400191505060405180910390fd5b6106b0856107e0565b610701576040805162461bcd60e51b815260206004820152601d60248201527f416464726573733a2063616c6c20746f206e6f6e2d636f6e7472616374000000604482015290519081900360640190fd5b60006060866001600160a01b031685876040518082805190602001908083835b6020831061075e57805182527fffffffffffffffffffffffffffffffffffffffffffffffffffffffffffffffe09092019160209182019101610721565b6001836020036101000a03801982511681845116808217855250505050505090500191505060006040518083038185875af1925050503d80600081146107c0576040519150601f19603f3d011682016040523d82523d6000602084013e6107c5565b606091505b50915091506107d58282866107e6565b979650505050505050565b3b151590565b606083156107f557508161065e565b8251156108055782518084602001fd5b8160405162461bcd60e51b81526004018080602001828103825283818151815260200191508051906020019080838360005b8381101561084f578181015183820152602001610837565b50505050905090810190601f16801561087c5780820380516001836020036101000a031916815260200191505b509250505060405180910390fdfe416464726573733a20696e73756666696369656e742062616c616e636520666f722063616c6c756e65787065637465642073697a65206f66207468652072656365697665724265616d5075626b65792e5361666545524332303a204552433230206f7065726174696f6e20646964206e6f742073756363656564a26469706673582212206bfc40e8ea3ed314f1287a54e489a4ce524f3aca8cabaff3dd7b15293eb3f99964736f6c63430007020033",
  "immutableReferences": {},
  "source": "// SPDX-License-Identifier: MIT\npragma solidity ^0.7.2;\n\nimport \"openzeppelin-solidity/contracts/math/SafeMath.sol\";\nimport \"openzeppelin-solidity/contracts/utils/Address.sol\";\nimport \"openzeppelin-solidity/contracts/token/ERC20/SafeERC20.sol\";\nimport \"openzeppelin-solidity/contracts/token/ERC20/IERC20.sol\";\n\ncontract Pipe {\n    using SafeERC20 for IERC20;\n    using SafeMath for uint;\n\n    uint32 m_localMsgCounter;\n    address m_tokenAddress;\n    address m_relayerAddress;\n\n    mapping (uint64 => bool) m_processedRemoteMsgs;\n\n    // LocalMessage {\n    //     // header:\n    //     uint32 msgId;\n    //     uint64 relayerFee;\n\n    //     // msg body\n    //     uint64 amount;\n    //     bytes receiver; // beam pubKey - 33 bytes\n    // }\n    event NewLocalMessage(uint64 msgId, uint64 amount, uint64 relayerFee, bytes receiver);\n\n    constructor(address tokenAddress, address relayerAddress)\n    {\n        m_tokenAddress = tokenAddress;\n        m_relayerAddress = relayerAddress;\n    }\n\n    // only for test. delete it!!!\n    function setRelayer(address relayerAddress)\n        public\n    {\n        m_relayerAddress = relayerAddress;\n        // TODO: mb add event\n    }\n\n    function processRemoteMessage(uint64 msgId, uint64 relayerFee, uint64 amount, address receiver)\n        public\n    {\n        require(msg.sender == m_relayerAddress, \"Invalid msg sender.\");\n        require(!m_processedRemoteMsgs[msgId], \"Msg already processed.\");\n        m_processedRemoteMsgs[msgId] = true;\n\n        IERC20(m_tokenAddress).safeTransfer(m_relayerAddress, relayerFee);\n        IERC20(m_tokenAddress).safeTransfer(receiver, amount);\n    }\n\n    function sendFunds(uint64 value, uint64 relayerFee, bytes memory receiverBeamPubkey)\n        public\n    {\n        require(receiverBeamPubkey.length == 33, \"unexpected size of the receiverBeamPubkey.\");\n\n        uint total = value + relayerFee;\n        IERC20(m_tokenAddress).safeTransferFrom(msg.sender, address(this), total);\n\n        emit NewLocalMessage(m_localMsgCounter++, value, relayerFee, receiverBeamPubkey);\n    }  \n}",
  "sourcePath": "C:\\projects\\ethereum\\bridge\\beam-bridge-ethpipe\\contracts\\Pipe.sol",
  "compiler": {
    "name": "solc",
    "version": "0.7.2+commit.51b20bc0.Emscripten.clang"
  },
  "schemaVersion": "3.4.2",
  "updatedAt": "2021-11-18T07:11:16.534Z",
  "devdoc": {
    "kind": "dev",
    "methods": {},
    "version": 1
  },
  "userdoc": {
    "kind": "user",
    "methods": {},
    "version": 1
  }
}