{
  "contractName": "EthPipe",
  "abi": [
    {
      "inputs": [
        {
          "internalType": "address",
          "name": "relayerAddress",
          "type": "address"
        }
      ],
      "stateMutability": "nonpayable",
      "type": "constructor"
    },
    {
      "anonymous": false,
      "inputs": [
        {
          "indexed": false,
          "internalType": "uint64",
          "name": "msgId",
          "type": "uint64"
        },
        {
          "indexed": false,
          "internalType": "uint64",
          "name": "amount",
          "type": "uint64"
        },
        {
          "indexed": false,
          "internalType": "uint64",
          "name": "relayerFee",
          "type": "uint64"
        },
        {
          "indexed": false,
          "internalType": "bytes",
          "name": "receiver",
          "type": "bytes"
        }
      ],
      "name": "NewLocalMessage",
      "type": "event"
    },
    {
      "inputs": [
        {
          "internalType": "address",
          "name": "relayerAddress",
          "type": "address"
        }
      ],
      "name": "setRelayer",
      "outputs": [],
      "stateMutability": "nonpayable",
      "type": "function"
    },
    {
      "inputs": [
        {
          "internalType": "uint64",
          "name": "msgId",
          "type": "uint64"
        },
        {
          "internalType": "uint64",
          "name": "relayerFee",
          "type": "uint64"
        },
        {
          "internalType": "uint64",
          "name": "amount",
          "type": "uint64"
        },
        {
          "internalType": "address",
          "name": "receiver",
          "type": "address"
        }
      ],
      "name": "processRemoteMessage",
      "outputs": [],
      "stateMutability": "nonpayable",
      "type": "function"
    },
    {
      "inputs": [
        {
          "internalType": "uint64",
          "name": "value",
          "type": "uint64"
        },
        {
          "internalType": "uint64",
          "name": "relayerFee",
          "type": "uint64"
        },
        {
          "internalType": "bytes",
          "name": "receiverBeamPubkey",
          "type": "bytes"
        }
      ],
      "name": "sendFunds",
      "outputs": [],
      "stateMutability": "payable",
      "type": "function"
    }
  ],
  "bytecode": "0x608060405234801561001057600080fd5b506040516106c73803806106c78339818101604052602081101561003357600080fd5b5051600080546001600160a01b0390921664010000000002600160201b600160c01b03199092169190911790556106588061006f6000396000f3fe6080604052600436106100345760003560e01c80630299c7dd146100395780635629ebc1146100fb5780636548e9bc1461015c575b600080fd5b6100f96004803603606081101561004f57600080fd5b67ffffffffffffffff823581169260208101359091169181019060608101604082013564010000000081111561008457600080fd5b82018360208201111561009657600080fd5b803590602001918460018302840111640100000000831117156100b857600080fd5b91908080601f01602080910402602001604051908101604052809392919081815260200183838082843760009201919091525092955061019c945050505050565b005b34801561010757600080fd5b506100f96004803603608081101561011e57600080fd5b50803567ffffffffffffffff908116916020810135821691604082013516906060013573ffffffffffffffffffffffffffffffffffffffff166102fe565b34801561016857600080fd5b506100f96004803603602081101561017f57600080fd5b503573ffffffffffffffffffffffffffffffffffffffff166105a9565b80516021146101dc5760405162461bcd60e51b815260040180806020018281038252602a8152602001806105f9602a913960400191505060405180910390fd5b67ffffffffffffffff838301163481146101f557600080fd5b7ff757db2d5118aa3c0442ccbd99e93d412e699577f67bbd30eb641bfd036f775160008081819054906101000a900463ffffffff168092919060010191906101000a81548163ffffffff021916908363ffffffff160217905550858585604051808563ffffffff1681526020018467ffffffffffffffff1681526020018367ffffffffffffffff16815260200180602001828103825283818151815260200191508051906020019080838360005b838110156102bb5781810151838201526020016102a3565b50505050905090810190601f1680156102e85780820380516001836020036101000a031916815260200191505b509550505050505060405180910390a150505050565b600054640100000000900473ffffffffffffffffffffffffffffffffffffffff163314610372576040805162461bcd60e51b815260206004820152601360248201527f496e76616c6964206d73672073656e6465722e00000000000000000000000000604482015290519081900360640190fd5b67ffffffffffffffff841660009081526001602052604090205460ff16156103e1576040805162461bcd60e51b815260206004820152601660248201527f4d736720616c72656164792070726f6365737365642e00000000000000000000604482015290519081900360640190fd5b67ffffffffffffffff848116600090815260016020819052604080832080547fffffffffffffffffffffffffffffffffffffffffffffffffffffffffffffff001690921790915581549051919264010000000090910473ffffffffffffffffffffffffffffffffffffffff1691908616908381818185875af1925050503d806000811461048a576040519150601f19603f3d011682016040523d82523d6000602084013e61048f565b606091505b50509050806104e5576040805162461bcd60e51b815260206004820152601060248201527f5472616e73666572206661696c65642e00000000000000000000000000000000604482015290519081900360640190fd5b60405173ffffffffffffffffffffffffffffffffffffffff83169067ffffffffffffffff851690600081818185875af1925050503d8060008114610545576040519150601f19603f3d011682016040523d82523d6000602084013e61054a565b606091505b505080915050806105a2576040805162461bcd60e51b815260206004820152601060248201527f5472616e73666572206661696c65642e00000000000000000000000000000000604482015290519081900360640190fd5b5050505050565b6000805473ffffffffffffffffffffffffffffffffffffffff909216640100000000027fffffffffffffffff0000000000000000000000000000000000000000ffffffff90921691909117905556fe756e65787065637465642073697a65206f66207468652072656365697665724265616d5075626b65792ea264697066735822122049a41225c8c239f4acecb019abb79443038ea11d101290370f4c7c44ae96ee1264736f6c63430007020033",
  "immutableReferences": {},
  "source": "// SPDX-License-Identifier: MIT\r\npragma solidity ^0.7.2;\r\n\r\nimport \"openzeppelin-solidity/contracts/math/SafeMath.sol\";\r\nimport \"openzeppelin-solidity/contracts/utils/Address.sol\";\r\n\r\ncontract EthPipe {\r\n    using SafeMath for uint;\r\n\r\n    uint32 m_localMsgCounter;\r\n    address m_relayerAddress;\r\n\r\n    mapping (uint64 => bool) m_processedRemoteMsgs;\r\n\r\n    // LocalMessage {\r\n    //     // header:\r\n    //     uint32 msgId;\r\n    //     uint64 relayerFee;\r\n\r\n    //     // msg body\r\n    //     uint64 amount;\r\n    //     bytes receiver; // beam pubKey - 33 bytes\r\n    // }\r\n    event NewLocalMessage(uint64 msgId, uint64 amount, uint64 relayerFee, bytes receiver);\r\n\r\n    constructor(address relayerAddress)\r\n    {\r\n        m_relayerAddress = relayerAddress;\r\n    }\r\n\r\n    // only for test. delete it!!!\r\n    function setRelayer(address relayerAddress)\r\n        public\r\n    {\r\n        m_relayerAddress = relayerAddress;\r\n        // TODO: mb add event\r\n    }\r\n\r\n    function processRemoteMessage(uint64 msgId, uint64 relayerFee, uint64 amount, address receiver)\r\n        public\r\n    {\r\n        require(msg.sender == m_relayerAddress, \"Invalid msg sender.\");\r\n        require(!m_processedRemoteMsgs[msgId], \"Msg already processed.\");\r\n        m_processedRemoteMsgs[msgId] = true;\r\n\r\n        (bool success, ) = payable(m_relayerAddress).call{value: relayerFee}(\"\");\r\n        require(success, \"Transfer failed.\");\r\n\r\n        (success, ) = payable(receiver).call{value: amount}(\"\");\r\n        require(success, \"Transfer failed.\");\r\n    }\r\n\r\n    function sendFunds(uint64 value, uint64 relayerFee, bytes memory receiverBeamPubkey)\r\n        public\r\n        payable\r\n    {\r\n        require(receiverBeamPubkey.length == 33, \"unexpected size of the receiverBeamPubkey.\");\r\n        uint total = value + relayerFee;\r\n        require(msg.value == total);\r\n\r\n        emit NewLocalMessage(m_localMsgCounter++, value, relayerFee, receiverBeamPubkey);\r\n    }  \r\n}",
  "sourcePath": "C:\\projects\\ethereum\\bridge\\beam-bridge-ethpipe\\contracts\\EthPipe.sol",
  "compiler": {
    "name": "solc",
    "version": "0.7.2+commit.51b20bc0.Emscripten.clang"
  },
  "schemaVersion": "3.4.2",
  "updatedAt": "2021-11-11T07:41:02.135Z",
  "devdoc": {
    "kind": "dev",
    "methods": {},
    "version": 1
  },
  "userdoc": {
    "kind": "user",
    "methods": {},
    "version": 1
  }
}