{
  "contractName": "Pipe",
  "abi": [
    {
      "inputs": [
        {
          "internalType": "address",
          "name": "tokenAddress",
          "type": "address"
        },
        {
          "internalType": "address",
          "name": "relayerAddress",
          "type": "address"
        }
      ],
      "stateMutability": "nonpayable",
      "type": "constructor"
    },
    {
      "anonymous": false,
      "inputs": [
        {
          "indexed": false,
          "internalType": "uint64",
          "name": "msgId",
          "type": "uint64"
        },
        {
          "indexed": false,
          "internalType": "uint256",
          "name": "amount",
          "type": "uint256"
        },
        {
          "indexed": false,
          "internalType": "uint256",
          "name": "relayerFee",
          "type": "uint256"
        },
        {
          "indexed": false,
          "internalType": "bytes",
          "name": "receiver",
          "type": "bytes"
        }
      ],
      "name": "NewLocalMessage",
      "type": "event"
    },
    {
      "inputs": [
        {
          "internalType": "address",
          "name": "relayerAddress",
          "type": "address"
        }
      ],
      "name": "setRelayer",
      "outputs": [],
      "stateMutability": "nonpayable",
      "type": "function"
    },
    {
      "inputs": [
        {
          "internalType": "uint64",
          "name": "msgId",
          "type": "uint64"
        },
        {
          "internalType": "uint256",
          "name": "relayerFee",
          "type": "uint256"
        },
        {
          "internalType": "uint256",
          "name": "amount",
          "type": "uint256"
        },
        {
          "internalType": "address",
          "name": "receiver",
          "type": "address"
        }
      ],
      "name": "processRemoteMessage",
      "outputs": [],
      "stateMutability": "nonpayable",
      "type": "function"
    },
    {
      "inputs": [
        {
          "internalType": "uint256",
          "name": "value",
          "type": "uint256"
        },
        {
          "internalType": "uint256",
          "name": "relayerFee",
          "type": "uint256"
        },
        {
          "internalType": "bytes",
          "name": "receiverBeamPubkey",
          "type": "bytes"
        }
      ],
      "name": "sendFunds",
      "outputs": [],
      "stateMutability": "nonpayable",
      "type": "function"
    }
  ],
  "bytecode": "0x608060405234801561001057600080fd5b5060405161099f38038061099f8339818101604052604081101561003357600080fd5b50805160209091015160008054600160401b600160e01b031916680100000000000000006001600160a01b0394851602178155600180546001600160a01b0319169390921692909217905561091190819061008e90396000f3fe608060405234801561001057600080fd5b50600436106100415760003560e01c80634d5dd2bc146100465780636548e9bc146100fa5780636efe7df514610120575b600080fd5b6100f86004803603606081101561005c57600080fd5b81359160208101359181019060608101604082013564010000000081111561008357600080fd5b82018360208201111561009557600080fd5b803590602001918460018302840111640100000000831117156100b757600080fd5b91908080601f016020809104026020016040519081016040528093929190818152602001838380828437600092019190915250929550610162945050505050565b005b6100f86004803603602081101561011057600080fd5b50356001600160a01b03166102c8565b6100f86004803603608081101561013657600080fd5b50803567ffffffffffffffff1690602081013590604081013590606001356001600160a01b0316610302565b80516021146101a25760405162461bcd60e51b815260040180806020018281038252602a815260200180610888602a913960400191505060405180910390fd5b600054828401906101ca906801000000000000000090046001600160a01b0316333084610465565b600080547fffffffffffffffffffffffffffffffffffffffffffffffff00000000000000008116600167ffffffffffffffff92831690810190921617825560408051828152602080820189905291810187905260806060820181815287519183019190915286517f5f52670be4e2f3d7b079180b485ab44712641a10d1c77e843355f96036608ac7958a948a948a949093909260a0850192860191908190849084905b8381101561028557818101518382015260200161026d565b50505050905090810190601f1680156102b25780820380516001836020036101000a031916815260200191505b509550505050505060405180910390a150505050565b600180547fffffffffffffffffffffffff0000000000000000000000000000000000000000166001600160a01b0392909216919091179055565b6001546001600160a01b03163314610361576040805162461bcd60e51b815260206004820152601360248201527f496e76616c6964206d73672073656e6465722e00000000000000000000000000604482015290519081900360640190fd5b67ffffffffffffffff841660009081526002602052604090205460ff16156103d0576040805162461bcd60e51b815260206004820152601660248201527f4d736720616c72656164792070726f6365737365642e00000000000000000000604482015290519081900360640190fd5b67ffffffffffffffff8416600090815260026020526040812080547fffffffffffffffffffffffffffffffffffffffffffffffffffffffffffffff0016600190811790915554905461043c91680100000000000000009091046001600160a01b039081169116856104ed565b60005461045f906801000000000000000090046001600160a01b031682846104ed565b50505050565b604080516001600160a01b0380861660248301528416604482015260648082018490528251808303909101815260849091019091526020810180517bffffffffffffffffffffffffffffffffffffffffffffffffffffffff167f23b872dd0000000000000000000000000000000000000000000000000000000017905261045f908590610572565b604080516001600160a01b038416602482015260448082018490528251808303909101815260649091019091526020810180517bffffffffffffffffffffffffffffffffffffffffffffffffffffffff167fa9059cbb0000000000000000000000000000000000000000000000000000000017905261056d908490610572565b505050565b60606105c7826040518060400160405280602081526020017f5361666545524332303a206c6f772d6c6576656c2063616c6c206661696c6564815250856001600160a01b03166106239092919063ffffffff16565b80519091501561056d578080602001905160208110156105e657600080fd5b505161056d5760405162461bcd60e51b815260040180806020018281038252602a8152602001806108b2602a913960400191505060405180910390fd5b6060610632848460008561063c565b90505b9392505050565b6060303183111561067e5760405162461bcd60e51b81526004018080602001828103825260268152602001806108626026913960400191505060405180910390fd5b610687856107b7565b6106d8576040805162461bcd60e51b815260206004820152601d60248201527f416464726573733a2063616c6c20746f206e6f6e2d636f6e7472616374000000604482015290519081900360640190fd5b60006060866001600160a01b031685876040518082805190602001908083835b6020831061073557805182527fffffffffffffffffffffffffffffffffffffffffffffffffffffffffffffffe090920191602091820191016106f8565b6001836020036101000a03801982511681845116808217855250505050505090500191505060006040518083038185875af1925050503d8060008114610797576040519150601f19603f3d011682016040523d82523d6000602084013e61079c565b606091505b50915091506107ac8282866107bd565b979650505050505050565b3b151590565b606083156107cc575081610635565b8251156107dc5782518084602001fd5b8160405162461bcd60e51b81526004018080602001828103825283818151815260200191508051906020019080838360005b8381101561082657818101518382015260200161080e565b50505050905090810190601f1680156108535780820380516001836020036101000a031916815260200191505b509250505060405180910390fdfe416464726573733a20696e73756666696369656e742062616c616e636520666f722063616c6c756e65787065637465642073697a65206f66207468652072656365697665724265616d5075626b65792e5361666545524332303a204552433230206f7065726174696f6e20646964206e6f742073756363656564a2646970667358221220dd246911bc53cfdc5044f0a2602fa5b07294c1b5bd63617b4a86f8ffc5cf39d664736f6c63430007020033",
  "immutableReferences": {},
  "source": "// SPDX-License-Identifier: MIT\r\npragma solidity ^0.7.2;\r\n\r\nimport \"openzeppelin-solidity/contracts/math/SafeMath.sol\";\r\nimport \"openzeppelin-solidity/contracts/utils/Address.sol\";\r\nimport \"openzeppelin-solidity/contracts/token/ERC20/SafeERC20.sol\";\r\nimport \"openzeppelin-solidity/contracts/token/ERC20/IERC20.sol\";\r\n\r\ncontract Pipe {\r\n    using SafeERC20 for IERC20;\r\n    using SafeMath for uint;\r\n\r\n    uint64 m_localMsgCounter;\r\n    address m_tokenAddress;\r\n    address m_relayerAddress;\r\n\r\n    mapping (uint64 => bool) m_processedRemoteMsgs;\r\n\r\n    // LocalMessage {\r\n    //     // header:\r\n    //     uint64 msgId;\r\n    //     uint relayerFee;\r\n\r\n    //     // msg body\r\n    //     uint amount;\r\n    //     bytes receiver; // beam pubKey - 33 bytes\r\n    // }\r\n    event NewLocalMessage(uint64 msgId, uint amount, uint relayerFee, bytes receiver);\r\n\r\n    constructor(address tokenAddress, address relayerAddress)\r\n    {\r\n        m_tokenAddress = tokenAddress;\r\n        m_relayerAddress = relayerAddress;\r\n    }\r\n\r\n    // only for test. delete it!!!\r\n    function setRelayer(address relayerAddress)\r\n        public\r\n    {\r\n        m_relayerAddress = relayerAddress;\r\n        // TODO: mb add event\r\n    }\r\n\r\n    function processRemoteMessage(uint64 msgId, uint relayerFee, uint amount, address receiver)\r\n        public\r\n    {\r\n        require(msg.sender == m_relayerAddress, \"Invalid msg sender.\");\r\n        require(!m_processedRemoteMsgs[msgId], \"Msg already processed.\");\r\n        m_processedRemoteMsgs[msgId] = true;\r\n\r\n        IERC20(m_tokenAddress).safeTransfer(m_relayerAddress, relayerFee);\r\n        IERC20(m_tokenAddress).safeTransfer(receiver, amount);\r\n    }\r\n\r\n    function sendFunds(uint value, uint relayerFee, bytes memory receiverBeamPubkey)\r\n        public\r\n    {\r\n        require(receiverBeamPubkey.length == 33, \"unexpected size of the receiverBeamPubkey.\");\r\n\r\n        uint total = value + relayerFee;\r\n        IERC20(m_tokenAddress).safeTransferFrom(msg.sender, address(this), total);\r\n\r\n        emit NewLocalMessage(m_localMsgCounter++, value, relayerFee, receiverBeamPubkey);\r\n    }  \r\n}",
  "sourcePath": "d:\\work\\bridge\\beam-bridge-ethpipe\\contracts\\Pipe.sol",
  "compiler": {
    "name": "solc",
    "version": "0.7.2+commit.51b20bc0.Emscripten.clang"
  },
  "schemaVersion": "3.4.2",
  "updatedAt": "2021-11-22T12:47:59.843Z",
  "devdoc": {
    "kind": "dev",
    "methods": {},
    "version": 1
  },
  "userdoc": {
    "kind": "user",
    "methods": {},
    "version": 1
  }
}