{
  "contractName": "EthPipe",
  "abi": [
    {
      "inputs": [
        {
          "internalType": "address",
          "name": "relayerAddress",
          "type": "address"
        }
      ],
      "stateMutability": "nonpayable",
      "type": "constructor"
    },
    {
      "anonymous": false,
      "inputs": [
        {
          "indexed": false,
          "internalType": "uint64",
          "name": "msgId",
          "type": "uint64"
        },
        {
          "indexed": false,
          "internalType": "uint256",
          "name": "amount",
          "type": "uint256"
        },
        {
          "indexed": false,
          "internalType": "uint256",
          "name": "relayerFee",
          "type": "uint256"
        },
        {
          "indexed": false,
          "internalType": "bytes",
          "name": "receiver",
          "type": "bytes"
        }
      ],
      "name": "NewLocalMessage",
      "type": "event"
    },
    {
      "inputs": [
        {
          "internalType": "uint64",
          "name": "msgId",
          "type": "uint64"
        },
        {
          "internalType": "uint256",
          "name": "relayerFee",
          "type": "uint256"
        },
        {
          "internalType": "uint256",
          "name": "amount",
          "type": "uint256"
        },
        {
          "internalType": "address",
          "name": "receiver",
          "type": "address"
        }
      ],
      "name": "processRemoteMessage",
      "outputs": [],
      "stateMutability": "nonpayable",
      "type": "function"
    },
    {
      "inputs": [
        {
          "internalType": "uint256",
          "name": "value",
          "type": "uint256"
        },
        {
          "internalType": "uint256",
          "name": "relayerFee",
          "type": "uint256"
        },
        {
          "internalType": "bytes",
          "name": "receiverBeamPubkey",
          "type": "bytes"
        }
      ],
      "name": "sendFunds",
      "outputs": [],
      "stateMutability": "payable",
      "type": "function"
    }
  ],
  "bytecode": "0x608060405234801561001057600080fd5b5060405161064a38038061064a8339818101604052602081101561003357600080fd5b5051600080546001600160a01b039092166801000000000000000002600160401b600160e01b03199092169190911790556105d7806100736000396000f3fe6080604052600436106100295760003560e01c80634d5dd2bc1461002e5780636efe7df5146100e2575b600080fd5b6100e06004803603606081101561004457600080fd5b81359160208101359181019060608101604082013564010000000081111561006b57600080fd5b82018360208201111561007d57600080fd5b8035906020019184600183028401116401000000008311171561009f57600080fd5b91908080601f01602080910402602001604051908101604052809392919081815260200183838082843760009201919091525092955061013e945050505050565b005b3480156100ee57600080fd5b506100e06004803603608081101561010557600080fd5b50803567ffffffffffffffff16906020810135906040810135906060013573ffffffffffffffffffffffffffffffffffffffff166102d3565b805160211461017e5760405162461bcd60e51b815260040180806020018281038252602a815260200180610578602a913960400191505060405180910390fd5b8282013481146101d5576040805162461bcd60e51b815260206004820152601160248201527f496e76616c69642073656e742066756e64000000000000000000000000000000604482015290519081900360640190fd5b600080547fffffffffffffffffffffffffffffffffffffffffffffffff00000000000000008116600167ffffffffffffffff92831690810190921617825560408051828152602080820189905291810187905260806060820181815287519183019190915286517f5f52670be4e2f3d7b079180b485ab44712641a10d1c77e843355f96036608ac7958a948a948a949093909260a0850192860191908190849084905b83811015610290578181015183820152602001610278565b50505050905090810190601f1680156102bd5780820380516001836020036101000a031916815260200191505b509550505050505060405180910390a150505050565b60005468010000000000000000900473ffffffffffffffffffffffffffffffffffffffff16331461034b576040805162461bcd60e51b815260206004820152601360248201527f496e76616c6964206d73672073656e6465722e00000000000000000000000000604482015290519081900360640190fd5b67ffffffffffffffff841660009081526001602052604090205460ff16156103ba576040805162461bcd60e51b815260206004820152601660248201527f4d736720616c72656164792070726f6365737365642e00000000000000000000604482015290519081900360640190fd5b67ffffffffffffffff8416600090815260016020819052604080832080547fffffffffffffffffffffffffffffffffffffffffffffffffffffffffffffff0016909217909155815490516801000000000000000090910473ffffffffffffffffffffffffffffffffffffffff169085908381818185875af1925050503d8060008114610462576040519150601f19603f3d011682016040523d82523d6000602084013e610467565b606091505b50509050806104bd576040805162461bcd60e51b815260206004820152601060248201527f5472616e73666572206661696c65642e00000000000000000000000000000000604482015290519081900360640190fd5b60405173ffffffffffffffffffffffffffffffffffffffff8316908490600081818185875af1925050503d8060008114610513576040519150601f19603f3d011682016040523d82523d6000602084013e610518565b606091505b50508091505080610570576040805162461bcd60e51b815260206004820152601060248201527f5472616e73666572206661696c65642e00000000000000000000000000000000604482015290519081900360640190fd5b505050505056fe756e65787065637465642073697a65206f66207468652072656365697665724265616d5075626b65792ea2646970667358221220162ab5ff3e468e25d1f28e33c0dbe09340595cfa56bceb1296be0d19e6a7c57f64736f6c63430007020033",
  "immutableReferences": {},
  "source": "// SPDX-License-Identifier: MIT\r\npragma solidity ^0.7.2;\r\n\r\nimport \"openzeppelin-solidity/contracts/math/SafeMath.sol\";\r\nimport \"openzeppelin-solidity/contracts/utils/Address.sol\";\r\n\r\ncontract EthPipe {\r\n    using SafeMath for uint;\r\n\r\n    uint64 m_localMsgCounter;\r\n    address m_relayerAddress;\r\n\r\n    mapping (uint64 => bool) m_processedRemoteMsgs;\r\n\r\n    // LocalMessage {\r\n    //     // header:\r\n    //     uint64 msgId;\r\n    //     uint relayerFee;\r\n\r\n    //     // msg body\r\n    //     uint amount;\r\n    //     bytes receiver; // beam pubKey - 33 bytes\r\n    // }\r\n    event NewLocalMessage(uint64 msgId, uint amount, uint relayerFee, bytes receiver);\r\n\r\n    constructor(address relayerAddress)\r\n    {\r\n        m_relayerAddress = relayerAddress;\r\n    }\r\n\r\n    function processRemoteMessage(uint64 msgId, uint relayerFee, uint amount, address receiver)\r\n        public\r\n    {\r\n        require(msg.sender == m_relayerAddress, \"Invalid msg sender.\");\r\n        require(!m_processedRemoteMsgs[msgId], \"Msg already processed.\");\r\n        m_processedRemoteMsgs[msgId] = true;\r\n\r\n        (bool success, ) = payable(m_relayerAddress).call{value: relayerFee}(\"\");\r\n        require(success, \"Transfer failed.\");\r\n\r\n        (success, ) = payable(receiver).call{value: amount}(\"\");\r\n        require(success, \"Transfer failed.\");\r\n    }\r\n\r\n    function sendFunds(uint value, uint relayerFee, bytes memory receiverBeamPubkey)\r\n        public\r\n        payable\r\n    {\r\n        require(receiverBeamPubkey.length == 33, \"unexpected size of the receiverBeamPubkey.\");\r\n        uint total = value + relayerFee;\r\n        require(msg.value == total, \"Invalid sent fund\");\r\n\r\n        emit NewLocalMessage(m_localMsgCounter++, value, relayerFee, receiverBeamPubkey);\r\n    }  \r\n}",
  "sourcePath": "d:\\work\\bridge\\beam-bridge-ethpipe\\contracts\\EthPipe.sol",
  "compiler": {
    "name": "solc",
    "version": "0.7.2+commit.51b20bc0.Emscripten.clang"
  },
  "schemaVersion": "3.4.2",
  "updatedAt": "2021-12-10T08:52:43.929Z",
  "devdoc": {
    "kind": "dev",
    "methods": {},
    "version": 1
  },
  "userdoc": {
    "kind": "user",
    "methods": {},
    "version": 1
  }
}