{
  "contractName": "Pipe",
  "abi": [
    {
      "anonymous": false,
      "inputs": [
        {
          "indexed": false,
          "internalType": "uint32",
          "name": "msgId",
          "type": "uint32"
        },
        {
          "indexed": false,
          "internalType": "address",
          "name": "msgContractSender",
          "type": "address"
        },
        {
          "indexed": false,
          "internalType": "bytes32",
          "name": "msgContractReceiver",
          "type": "bytes32"
        },
        {
          "indexed": false,
          "internalType": "bytes",
          "name": "msgBody",
          "type": "bytes"
        }
      ],
      "name": "NewLocalMessage",
      "type": "event"
    },
    {
      "inputs": [
        {
          "internalType": "bytes32",
          "name": "remoteContractId",
          "type": "bytes32"
        }
      ],
      "name": "setRemote",
      "outputs": [],
      "stateMutability": "nonpayable",
      "type": "function"
    },
    {
      "inputs": [
        {
          "internalType": "uint256",
          "name": "msgId",
          "type": "uint256"
        },
        {
          "internalType": "bytes32",
          "name": "msgContractSender",
          "type": "bytes32"
        },
        {
          "internalType": "address",
          "name": "msgContractReceiver",
          "type": "address"
        },
        {
          "internalType": "bytes",
          "name": "messageBody",
          "type": "bytes"
        }
      ],
      "name": "pushRemoteMessage",
      "outputs": [],
      "stateMutability": "nonpayable",
      "type": "function"
    },
    {
      "inputs": [
        {
          "internalType": "uint256",
          "name": "msgId",
          "type": "uint256"
        },
        {
          "internalType": "bytes32",
          "name": "prev",
          "type": "bytes32"
        },
        {
          "internalType": "bytes32",
          "name": "chainWork",
          "type": "bytes32"
        },
        {
          "internalType": "bytes32",
          "name": "kernels",
          "type": "bytes32"
        },
        {
          "internalType": "bytes32",
          "name": "definition",
          "type": "bytes32"
        },
        {
          "internalType": "uint64",
          "name": "height",
          "type": "uint64"
        },
        {
          "internalType": "uint64",
          "name": "timestamp",
          "type": "uint64"
        },
        {
          "internalType": "bytes",
          "name": "pow",
          "type": "bytes"
        },
        {
          "internalType": "bytes32",
          "name": "rulesHash",
          "type": "bytes32"
        },
        {
          "internalType": "bytes",
          "name": "proof",
          "type": "bytes"
        }
      ],
      "name": "validateRemoteMessage",
      "outputs": [],
      "stateMutability": "nonpayable",
      "type": "function"
    },
    {
      "inputs": [
        {
          "internalType": "uint256",
          "name": "msgId",
          "type": "uint256"
        }
      ],
      "name": "getRemoteMessage",
      "outputs": [
        {
          "internalType": "bytes",
          "name": "",
          "type": "bytes"
        }
      ],
      "stateMutability": "nonpayable",
      "type": "function"
    },
    {
      "inputs": [
        {
          "internalType": "bytes32",
          "name": "contractReceiver",
          "type": "bytes32"
        },
        {
          "internalType": "bytes",
          "name": "msgBody",
          "type": "bytes"
        }
      ],
      "name": "pushLocalMessage",
      "outputs": [],
      "stateMutability": "nonpayable",
      "type": "function"
    },
    {
      "inputs": [
        {
          "internalType": "bytes32",
          "name": "key",
          "type": "bytes32"
        }
      ],
      "name": "getRemoteMsgByKey",
      "outputs": [
        {
          "internalType": "uint32",
          "name": "",
          "type": "uint32"
        },
        {
          "internalType": "bytes32",
          "name": "",
          "type": "bytes32"
        },
        {
          "internalType": "bytes",
          "name": "",
          "type": "bytes"
        }
      ],
      "stateMutability": "view",
      "type": "function",
      "constant": true
    },
    {
      "inputs": [],
      "name": "getRemoteMsgKeys",
      "outputs": [
        {
          "internalType": "bytes32[]",
          "name": "",
          "type": "bytes32[]"
        }
      ],
      "stateMutability": "view",
      "type": "function",
      "constant": true
    }
  ],
  "bytecode": "0x608060405234801561001057600080fd5b506115cf806100206000396000f3fe608060405234801561001057600080fd5b506004361061007d5760003560e01c80637de00d3a1161005b5780637de00d3a14610202578063aa88c19014610372578063ce117688146103ca578063eb52933a146104735761007d565b8063158df4191461008257806366a06837146100a157806376fc6ba914610133575b600080fd5b61009f6004803603602081101561009857600080fd5b5035610520565b005b6100be600480360360208110156100b757600080fd5b5035610525565b6040805160208082528351818301528351919283929083019185019080838360005b838110156100f85781810151838201526020016100e0565b50505050905090810190601f1680156101255780820380516001836020036101000a031916815260200191505b509250505060405180910390f35b61009f6004803603608081101561014957600080fd5b81359160208101359173ffffffffffffffffffffffffffffffffffffffff604083013516919081019060808101606082013564010000000081111561018d57600080fd5b82018360208201111561019f57600080fd5b803590602001918460018302840111640100000000831117156101c157600080fd5b91908080601f0160208091040260200160405190810160405280939291908181526020018383808284376000920191909152509295506107bd945050505050565b61009f600480360361014081101561021957600080fd5b81359160208101359160408201359160608101359160808201359167ffffffffffffffff60a082013581169260c08301359091169190810190610100810160e082013564010000000081111561026e57600080fd5b82018360208201111561028057600080fd5b803590602001918460018302840111640100000000831117156102a257600080fd5b91908080601f016020809104026020016040519081016040528093929190818152602001838380828437600092019190915250929584359590949093506040810192506020013590506401000000008111156102fd57600080fd5b82018360208201111561030f57600080fd5b8035906020019184600183028401116401000000008311171561033157600080fd5b91908080601f01602080910402602001604051908101604052809392919081815260200183838082843760009201919091525092955061095a945050505050565b61037a610b71565b60408051602080825283518183015283519192839290830191858101910280838360005b838110156103b657818101518382015260200161039e565b505050509050019250505060405180910390f35b6103e7600480360360208110156103e057600080fd5b5035610bc9565b604051808463ffffffff16815260200183815260200180602001828103825283818151815260200191508051906020019080838360005b8381101561043657818101518382015260200161041e565b50505050905090810190601f1680156104635780820380516001836020036101000a031916815260200191505b5094505050505060405180910390f35b61009f6004803603604081101561048957600080fd5b813591908101906040810160208201356401000000008111156104ab57600080fd5b8201836020820111156104bd57600080fd5b803590602001918460018302840111640100000000831117156104df57600080fd5b91908080601f016020809104026020016040519081016040528093929190818152602001838380828437600092019190915250929550610d1d945050505050565b600055565b6060600061053283610df9565b60008181526001602052604090206003015490915060ff1661059b576040805162461bcd60e51b815260206004820152601b60248201527f6d6573736167652073686f756c642062652076616c6964617465640000000000604482015290519081900360640190fd5b6105a3611467565b600082815260016020818152604092839020835160c081018552815463ffffffff80821683526401000000008204168285015268010000000000000000900473ffffffffffffffffffffffffffffffffffffffff16818601528184015460608201526002808301805487516101009782161597909702600019011691909104601f81018590048502860185019096528585529094919360808601939092908301828280156106925780601f1061066757610100808354040283529160200191610692565b820191906000526020600020905b81548152906001019060200180831161067557829003601f168201915b50505091835250506003919091015460ff16151560209091015260025481519192506000190163ffffffff9091161461073857600280546000919060001981019081106106db57fe5b90600052602060002001549050806002836000015163ffffffff168154811061070057fe5b6000918252602080832091909101929092558351928152600190915260409020805463ffffffff191663ffffffff9092169190911790555b6000828152600160208190526040822080547fffffffff0000000000000000000000000000000000000000000000000000000016815590810182905590610782600283018261149b565b50600301805460ff19169055600280548061079957fe5b60019003818190600052602060002001600090559055806080015192505050919050565b60006107c885610df9565b905060016000828152602001908152602001600020600201805460018160011615610100020316600290049050600014610849576040805162461bcd60e51b815260206004820152601060248201527f6d65737361676520697320657869737400000000000000000000000000000000604482015290519081900360640190fd5b60028054600180820183557f405787fa12a823e0f2b7631cc41b3ba8828b3321ca811111fa75cd3aa3bb5ace9091018390558154600084815260208381526040909120805463ffffffff191660001990930163ffffffff908116939093177fffffffffffffffffffffffffffffffffffffffffffffffff00000000ffffffff16640100000000938b1693909302929092177fffffffff0000000000000000000000000000000000000000ffffffffffffffff166801000000000000000073ffffffffffffffffffffffffffffffffffffffff891602178255918101879055845161093a9391909101918501906114e2565b506000908152600160205260409020600301805460ff1916905550505050565b60006109658b610df9565b60008181526001602052604090206003015490915060ff16156109cf576040805162461bcd60e51b815260206004820152601160248201527f616c72656164792076657269666965642e000000000000000000000000000000604482015290519081900360640190fd5b60606109da8c610e32565b60008381526001602081815260409283902080830154815485519384018281527fffffffffffffffffffffffffffffffffffffffff00000000000000000000000068010000000000000000909204606081811b9390931697860197909752600293840180549899509197929673ffffffffffffffffffffffffffffffffffffffff169591949093605490910192859260001990821615610100020116048015610aba5780601f10610a98576101008083540402835291820191610aba565b820191906000526020600020905b815481529060010190602001808311610aa6575b5050935050505060405160208183030381529060405290506000610ade8383610eb0565b90506000610aec82876110c5565b90508a8114610b42576040805162461bcd60e51b815260206004820152600d60248201527f696e76616c69642070726f6f6600000000000000000000000000000000000000604482015290519081900360640190fd5b505050600091825250600160208190526040909120600301805460ff1916909117905550505050505050505050565b60606002805480602002602001604051908101604052809291908181526020018280548015610bbf57602002820191906000526020600020905b815481526020019060010190808311610bab575b5050505050905090565b60008060606001600085815260200190815260200160002060020180546001816001161561010002031660029004905060001480610c37575060008481526001602052604090205468010000000000000000900473ffffffffffffffffffffffffffffffffffffffff163314155b15610c58575050604080516000808252602082019092529091508190610d16565b6000848152600160208181526040928390208054818401546002928301805487516101009782161597909702600019011693909304601f810185900485028601850190965285855264010000000090910463ffffffff169490939192839190830182828015610d085780601f10610cdd57610100808354040283529160200191610d08565b820191906000526020600020905b815481529060010190602001808311610ceb57829003601f168201915b505050505090509250925092505b9193909250565b6003805463ffffffff198116600163ffffffff928316908101909216179091556040805182815233602080830182905292820186905260806060830181815286519184019190915285517fa011dceabc954f6714fb94a8ded740ecbe112ef1b6c2231fa34509459e3634559594929388938893919260a084019185019080838360005b83811015610db8578181015183820152602001610da0565b50505050905090810190601f168015610de55780820380516001836020036101000a031916815260200191505b509550505050505060405180910390a15050565b600081604051602001808263ffffffff1660e01b8152600401915050604051602081830303815290604052805190602001209050919050565b60008054604080516020810192909252818101929092527f0200000000000000000000000000000000000000000000000000000000000000604182015260e09290921b7fffffffff00000000000000000000000000000000000000000000000000000000166042830152805180830360260181526046909201905290565b60006060610ebe8451611358565b84610ec98551611358565b8560405160200180807f6265616d2e636f6e74726163742e76616c00000000000000000000000000000081525060120185805190602001908083835b60208310610f245780518252601f199092019160209182019101610f05565b51815160209384036101000a600019018019909216911617905287519190930192870191508083835b60208310610f6c5780518252601f199092019160209182019101610f4d565b51815160209384036101000a600019018019909216911617905286519190930192860191508083835b60208310610fb45780518252601f199092019160209182019101610f95565b51815160209384036101000a600019018019909216911617905285519190930192850191508083835b60208310610ffc5780518252601f199092019160209182019101610fdd565b6001836020036101000a03801982511681845116808217855250505050505090500194505050505060405160208183030381529060405290506002816040518082805190602001908083835b602083106110675780518252601f199092019160209182019101611048565b51815160209384036101000a60001901801990921691161790526040519190930194509192505080830381855afa1580156110a6573d6000803e3d6000fd5b5050506040513d60208110156110bb57600080fd5b5051949350505050565b600060218251816110d257fe5b0615611125576040805162461bcd60e51b815260206004820152601f60248201527f756e6578706563746564206c656e676874206f66207468652070726f6f662e00604482015290519081900360640190fd5b6120df8251106111665760405162461bcd60e51b81526004018080602001828103825260248152602001806115766024913960400191505060405180910390fd5b50816000805b83518161ffff16101561135057806021850101519150838161ffff168151811061119257fe5b6020910101517fff00000000000000000000000000000000000000000000000000000000000000167f010000000000000000000000000000000000000000000000000000000000000014611296576002828460405160200180838152602001828152602001925050506040516020818303038152906040526040518082805190602001908083835b602083106112395780518252601f19909201916020918201910161121a565b51815160209384036101000a60001901801990921691161790526040519190930194509192505080830381855afa158015611278573d6000803e3d6000fd5b5050506040513d602081101561128d57600080fd5b50519250611348565b6002838360405160200180838152602001828152602001925050506040516020818303038152906040526040518082805190602001908083835b602083106112ef5780518252601f1990920191602091820191016112d0565b51815160209384036101000a60001901801990921691161790526040519190930194509192505080830381855afa15801561132e573d6000803e3d6000fd5b5050506040513d602081101561134357600080fd5b505192505b60210161116c565b505092915050565b6060805b608083106113ea5780836080176040516020018083805190602001908083835b6020831061139b5780518252601f19909201916020918201910161137c565b6001836020036101000a0380198251168184511680821785525050505050509050018260ff1660f81b8152600101925050506040516020818303038152906040529050600783901c925061135c565b80836040516020018083805190602001908083835b6020831061141e5780518252601f1990920191602091820191016113ff565b6001836020036101000a0380198251168184511680821785525050505050509050018260ff1660f81b815260010192505050604051602081830303815290604052915050919050565b6040805160c0810182526000808252602082018190529181018290526060808201839052608082015260a081019190915290565b50805460018160011615610100020316600290046000825580601f106114c157506114df565b601f0160209004906000526020600020908101906114df9190611560565b50565b828054600181600116156101000203166002900490600052602060002090601f016020900481019282601f1061152357805160ff1916838001178555611550565b82800160010185558215611550579182015b82811115611550578251825591602001919060010190611535565b5061155c929150611560565b5090565b5b8082111561155c576000815560010161156156fe746865206c656e677468206f66207468652070726f6f6620697320746f6f206c6f6e672ea2646970667358221220db10fbaefcad11b0b57789a8b165a19bfc4645b1bfcdaf59e779bf0e856af75764736f6c63430007020033",
  "immutableReferences": {},
  "source": "// SPDX-License-Identifier: MIT\r\npragma solidity ^0.7.2;\r\n\r\nimport \"./BeamHeader.sol\";\r\nimport \"./BeamUtils.sol\";\r\n\r\ncontract Pipe {\r\n    // config:\r\n    // remote cfg:\r\n    // uint32 packageMaxMsgs;\r\n    // uint64 packageMaxDiffHeightToClose;\r\n    // local cfg:\r\n    // bytes32 rulesRemote; // ?\r\n    // uint256 comissionPerMsg;\r\n    // uint256 stakeForRemoteMsg;\r\n    // uint64  disputePeriod;\r\n    // uint64  contenderWaitPeriod;\r\n\r\n    // incoming messages\r\n    struct RemoteMessage {\r\n        // index in array m_remoteMsgsKeys\r\n        uint32 index;\r\n        // header:\r\n        uint32 msgId;\r\n        // eth contract address \r\n        address msgContractReceiver;\r\n        // beam contract id\r\n        bytes32 msgContractSender;\r\n\r\n        // body\r\n        bytes value;\r\n        bool validated;\r\n    }\r\n\r\n    bytes32 m_remotePipeId;\r\n    mapping (bytes32 => RemoteMessage) m_remoteMessages;\r\n    bytes32[] m_remoteMsgsKeys;\r\n    uint32 m_localMsgCounter;\r\n\r\n    // LocalMessage {\r\n    //     // header:\r\n    //     uint32 msgId;\r\n    //     address msgContractSender; // eth contract address\r\n    //     bytes32 msgContractReceiver; // beam contract id\r\n\r\n    //     // msg body\r\n    //     uint64 value;\r\n    //     bytes receiver; // beam pubKey - 33 bytes\r\n    // }\r\n    event NewLocalMessage(uint32 msgId, address msgContractSender, bytes32 msgContractReceiver, bytes msgBody);\r\n\r\n    function setRemote(bytes32 remoteContractId)\r\n        public\r\n    {\r\n        m_remotePipeId = remoteContractId;\r\n    }\r\n\r\n    function getMsgKey(uint msgId)\r\n        private\r\n        pure\r\n        returns (bytes32 key)\r\n    {\r\n        key = keccak256(abi.encodePacked(uint32(msgId)));\r\n    }\r\n\r\n    // TODO: add support multiple msgs\r\n    function pushRemoteMessage(uint msgId,\r\n                               bytes32 msgContractSender,       // beam contract id\r\n                               address msgContractReceiver,     // eth contract address\r\n                               bytes memory messageBody)\r\n        public\r\n    {\r\n        bytes32 key = getMsgKey(msgId);\r\n\r\n        require(m_remoteMessages[key].value.length == 0, \"message is exist\");\r\n\r\n        m_remoteMsgsKeys.push(key);\r\n\r\n        m_remoteMessages[key].index = uint32(m_remoteMsgsKeys.length - 1);\r\n        m_remoteMessages[key].msgId = uint32(msgId);\r\n        m_remoteMessages[key].msgContractReceiver = msgContractReceiver;\r\n        m_remoteMessages[key].msgContractSender = msgContractSender;\r\n        m_remoteMessages[key].value = messageBody;\r\n        m_remoteMessages[key].validated = false;\r\n    }\r\n\r\n    function getBeamVariableKey(uint msgId)\r\n        private\r\n        view\r\n        returns (bytes memory)\r\n    {\r\n        // [contract_id,KeyTag::Internal(uint8 0),KeyType::OutCheckpoint(uint8 2),index_BE(uint32 'packageId')]\r\n        return abi.encodePacked(m_remotePipeId, uint8(0), uint8(2), uint32(msgId));\r\n    }\r\n\r\n    function getMsgHash(bytes32 previousHash, RemoteMessage memory message)\r\n        private\r\n        pure\r\n        returns (bytes32)\r\n    {\r\n        return sha256(abi.encodePacked(\"b.msg\\x00\",\r\n                      previousHash,\r\n                      // full msg size\r\n                      BeamUtils.encodeUint(20 + message.msgContractSender.length + message.value.length),\r\n                      // msgHdr: sender/receiver\r\n                      message.msgContractSender,\r\n                      message.msgContractReceiver,\r\n                      // msg body\r\n                      message.value));\r\n    }\r\n\r\n    function validateRemoteMessage(uint msgId, \r\n                                   // params of block\r\n                                   bytes32 prev,\r\n                                   bytes32 chainWork,\r\n                                   bytes32 kernels,\r\n                                   bytes32 definition,\r\n                                   uint64 height,\r\n                                   uint64 timestamp,\r\n                                   bytes memory pow,\r\n                                   bytes32 rulesHash,\r\n                                   bytes memory proof)\r\n        public\r\n    {\r\n        bytes32 key = getMsgKey(msgId);\r\n        require(!m_remoteMessages[key].validated, \"already verified.\");\r\n        \r\n        // validate block header & proof of msg\r\n        // TODO: uncomment when stop using FakePow\r\n        // require(BeamHeader.isValid(prev, chainWork, kernels, definition, height, timestamp, pow, rulesHash), 'invalid header.');\r\n\r\n        bytes memory variableKey = getBeamVariableKey(msgId);\r\n        bytes memory ecodedMsg = abi.encodePacked(m_remoteMessages[key].msgContractSender, m_remoteMessages[key].msgContractReceiver, m_remoteMessages[key].value);\r\n        bytes32 variableHash = BeamUtils.getContractVariableHash(variableKey, ecodedMsg);\r\n        bytes32 rootHash = BeamUtils.interpretMerkleProof(variableHash, proof);\r\n\r\n        require(rootHash == definition, \"invalid proof\");\r\n        m_remoteMessages[key].validated = true;\r\n    }\r\n\r\n    function getRemoteMessage(uint msgId)\r\n        public\r\n        returns (bytes memory)\r\n    {\r\n        bytes32 key = getMsgKey(msgId);\r\n        require(m_remoteMessages[key].validated, \"message should be validated\");\r\n        // TODO: uncomment after testing\r\n        // require(msg.sender == m_remoteMessages[key].msgContractReceiver, \"invalid msg receiver\");\r\n\r\n        RemoteMessage memory tmp = m_remoteMessages[key];\r\n\r\n        // delete from keys\r\n        if (tmp.index != m_remoteMsgsKeys.length - 1) {\r\n            bytes32 lastKey = m_remoteMsgsKeys[m_remoteMsgsKeys.length - 1];\r\n            m_remoteMsgsKeys[tmp.index] = lastKey;\r\n            m_remoteMessages[lastKey].index = tmp.index;\r\n        }\r\n        delete m_remoteMessages[key];\r\n        m_remoteMsgsKeys.pop();\r\n\r\n        return tmp.value;\r\n    }\r\n\r\n    function pushLocalMessage(bytes32 contractReceiver, bytes memory msgBody)\r\n        public\r\n    {\r\n        // TODO: pckgId\r\n        emit NewLocalMessage(m_localMsgCounter++, msg.sender, contractReceiver, msgBody);\r\n    }\r\n\r\n    function getRemoteMsgByKey(bytes32 key)\r\n        public\r\n        view\r\n        returns (uint32, bytes32, bytes memory)\r\n    {\r\n        if (m_remoteMessages[key].value.length == 0  ||\r\n            m_remoteMessages[key].msgContractReceiver != msg.sender \r\n            // TODO: uncomment after testing\r\n            /* ||\r\n            !m_remoteMessages[key].validated*/)\r\n        {\r\n            return (0, bytes32(0), new bytes(0));\r\n        }\r\n        return (m_remoteMessages[key].msgId, m_remoteMessages[key].msgContractSender, m_remoteMessages[key].value);\r\n    }\r\n\r\n    function getRemoteMsgKeys()\r\n        public\r\n        view\r\n        returns (bytes32[] memory)\r\n    {\r\n        return m_remoteMsgsKeys;\r\n    }\r\n}",
  "sourcePath": "D:\\work\\bridge\\beam-bridge-ethpipe\\contracts\\Pipe.sol",
  "compiler": {
    "name": "solc",
    "version": "0.7.2+commit.51b20bc0.Emscripten.clang"
  },
  "schemaVersion": "3.4.1",
  "updatedAt": "2021-08-03T16:07:22.647Z",
  "networkType": "ethereum",
  "devdoc": {
    "kind": "dev",
    "methods": {},
    "version": 1
  },
  "userdoc": {
    "kind": "user",
    "methods": {},
    "version": 1
  }
}