{
  "contractName": "PipeUser",
  "abi": [
    {
      "inputs": [
        {
          "internalType": "address",
          "name": "pipeAddress",
          "type": "address"
        },
        {
          "internalType": "address",
          "name": "beamToken",
          "type": "address"
        },
        {
          "internalType": "bytes32",
          "name": "beamPipeUserCid",
          "type": "bytes32"
        }
      ],
      "stateMutability": "nonpayable",
      "type": "constructor"
    },
    {
      "inputs": [
        {
          "internalType": "uint256",
          "name": "msgId",
          "type": "uint256"
        }
      ],
      "name": "receiveFunds",
      "outputs": [],
      "stateMutability": "nonpayable",
      "type": "function"
    },
    {
      "inputs": [
        {
          "internalType": "uint64",
          "name": "value",
          "type": "uint64"
        },
        {
          "internalType": "bytes",
          "name": "receiverBeamPubkey",
          "type": "bytes"
        }
      ],
      "name": "sendFunds",
      "outputs": [],
      "stateMutability": "nonpayable",
      "type": "function"
    },
    {
      "inputs": [
        {
          "internalType": "bytes32",
          "name": "remoteContractId",
          "type": "bytes32"
        }
      ],
      "name": "setRemote",
      "outputs": [],
      "stateMutability": "nonpayable",
      "type": "function"
    }
  ],
  "bytecode": "0x608060405234801561001057600080fd5b50604051610a1a380380610a1a8339818101604052606081101561003357600080fd5b5080516020820151604090920151600080546001600160a01b039384166001600160a01b0319918216179091556001805493909416921691909117909155600255610997806100836000396000f3fe608060405234801561001057600080fd5b50600436106100415760003560e01c8063158df419146100465780638827e09b146100655780639653d0dc14610082575b600080fd5b6100636004803603602081101561005c57600080fd5b5035610139565b005b6100636004803603602081101561007b57600080fd5b503561013e565b6100636004803603604081101561009857600080fd5b67ffffffffffffffff82351691908101906040810160208201356401000000008111156100c457600080fd5b8201836020820111156100d657600080fd5b803590602001918460018302840111640100000000831117156100f857600080fd5b91908080601f0160208091040260200160405190810160405280939291908181526020018383808284376000920191909152509295506102f5945050505050565b600255565b60008054604080517f66a0683700000000000000000000000000000000000000000000000000000000815260048101859052905160609373ffffffffffffffffffffffffffffffffffffffff909316926366a06837926024808201939182900301818387803b1580156101b057600080fd5b505af11580156101c4573d6000803e3d6000fd5b505050506040513d6000823e601f3d908101601f1916820160405260208110156101ed57600080fd5b810190808051604051939291908464010000000082111561020d57600080fd5b90830190602082018581111561022257600080fd5b825164010000000081118282018810171561023c57600080fd5b82525081516020918201929091019080838360005b83811015610269578181015183820152602001610251565b50505050905090810190601f1680156102965780820380516001836020036101000a031916815260200191505b506040525050506020810151603482015191925060601c9060006102bd60c083901c61049a565b6001549091506102ee9073ffffffffffffffffffffffffffffffffffffffff168467ffffffffffffffff84166104f9565b5050505050565b6001546103249073ffffffffffffffffffffffffffffffffffffffff16333067ffffffffffffffff861661058b565b60008054906101000a900473ffffffffffffffffffffffffffffffffffffffff1673ffffffffffffffffffffffffffffffffffffffff1663eb52933a60025483856040516020018083805190602001908083835b602083106103975780518252601f199092019160209182019101610378565b6001836020036101000a0380198251168184511680821785525050505050509050018267ffffffffffffffff1660c01b8152600801925050506040516020818303038152906040526040518363ffffffff1660e01b81526004018083815260200180602001828103825283818151815260200191508051906020019080838360005b83811015610431578181015183820152602001610419565b50505050905090810190601f16801561045e5780820380516001836020036101000a031916815260200191505b509350505050600060405180830381600087803b15801561047e57600080fd5b505af1158015610492573d6000803e3d6000fd5b505050505050565b600881811b67ff00ff00ff00ff001666ff00ff00ff00ff9290911c9190911617601081811b67ffff0000ffff00001665ffff0000ffff9290911c9190911617602081811b6bffffffffffffffff000000001691901c63ffffffff161790565b6040805173ffffffffffffffffffffffffffffffffffffffff8416602482015260448082018490528251808303909101815260649091019091526020810180517bffffffffffffffffffffffffffffffffffffffffffffffffffffffff167fa9059cbb00000000000000000000000000000000000000000000000000000000179052610586908490610626565b505050565b6040805173ffffffffffffffffffffffffffffffffffffffff80861660248301528416604482015260648082018490528251808303909101815260849091019091526020810180517bffffffffffffffffffffffffffffffffffffffffffffffffffffffff167f23b872dd00000000000000000000000000000000000000000000000000000000179052610620908590610626565b50505050565b6060610688826040518060400160405280602081526020017f5361666545524332303a206c6f772d6c6576656c2063616c6c206661696c65648152508573ffffffffffffffffffffffffffffffffffffffff166106e49092919063ffffffff16565b805190915015610586578080602001905160208110156106a757600080fd5b50516105865760405162461bcd60e51b815260040180806020018281038252602a815260200180610938602a913960400191505060405180910390fd5b60606106f384846000856106fd565b90505b9392505050565b6060303183111561073f5760405162461bcd60e51b81526004018080602001828103825260268152602001806109126026913960400191505060405180910390fd5b61074885610867565b610799576040805162461bcd60e51b815260206004820152601d60248201527f416464726573733a2063616c6c20746f206e6f6e2d636f6e7472616374000000604482015290519081900360640190fd5b600060608673ffffffffffffffffffffffffffffffffffffffff1685876040518082805190602001908083835b602083106107e55780518252601f1990920191602091820191016107c6565b6001836020036101000a03801982511681845116808217855250505050505090500191505060006040518083038185875af1925050503d8060008114610847576040519150601f19603f3d011682016040523d82523d6000602084013e61084c565b606091505b509150915061085c82828661086d565b979650505050505050565b3b151590565b6060831561087c5750816106f6565b82511561088c5782518084602001fd5b8160405162461bcd60e51b81526004018080602001828103825283818151815260200191508051906020019080838360005b838110156108d65781810151838201526020016108be565b50505050905090810190601f1680156109035780820380516001836020036101000a031916815260200191505b509250505060405180910390fdfe416464726573733a20696e73756666696369656e742062616c616e636520666f722063616c6c5361666545524332303a204552433230206f7065726174696f6e20646964206e6f742073756363656564a26469706673582212206fe7dade9241a25b415e1a8f26c8313592ca46d205de0c48c4be45a802fcf3c364736f6c63430007020033",
  "immutableReferences": {},
  "source": "// SPDX-License-Identifier: MIT\npragma solidity ^0.7.2;\n\nimport \"./Pipe.sol\";\nimport \"openzeppelin-solidity/contracts/math/SafeMath.sol\";\nimport \"openzeppelin-solidity/contracts/utils/Address.sol\";\nimport \"openzeppelin-solidity/contracts/token/ERC20/SafeERC20.sol\";\nimport \"openzeppelin-solidity/contracts/token/ERC20/IERC20.sol\";\n\ncontract PipeUser {\n    using SafeERC20 for IERC20;\n    address m_pipeAddress;\n    address m_beamToken;\n    bytes32 m_beamPipeUserCid;\n\n    constructor(address pipeAddress, address beamToken, bytes32 beamPipeUserCid)\n    {\n        m_pipeAddress = pipeAddress;\n        m_beamToken = beamToken;\n        m_beamPipeUserCid = beamPipeUserCid;\n    }\n\n    function receiveFunds(uint msgId)\n        public\n    {\n        bytes memory value = Pipe(m_pipeAddress).getRemoteMessage(msgId);\n\n        // parse msg: [address][uint64 value]\n        address receiver;\n        bytes8 tmp;\n        assembly {\n            receiver := shr(96, mload(add(value, 32)))\n            tmp := mload(add(value, 52))\n        }\n        uint64 amount = BeamUtils.reverse64(uint64(tmp));\n\n        IERC20(m_beamToken).safeTransfer(receiver, amount);\n    }\n\n    function sendFunds(uint64 value, bytes memory receiverBeamPubkey)\n        public\n    {\n        IERC20(m_beamToken).safeTransferFrom(msg.sender, address(this), value);\n\n        Pipe(m_pipeAddress).pushLocalMessage(m_beamPipeUserCid, abi.encodePacked(receiverBeamPubkey, value));\n    }\n\n    function setRemote(bytes32 remoteContractId)\n        public\n    {\n        m_beamPipeUserCid = remoteContractId;\n    }\n}",
  "sourcePath": "C:/projects/ethereum/eth_pipe/contracts/PipeUser.sol",
  "compiler": {
    "name": "solc",
    "version": "0.7.2+commit.51b20bc0.Emscripten.clang"
  },
  "schemaVersion": "3.4.1",
  "updatedAt": "2021-07-09T10:13:50.063Z",
  "networkType": "ethereum",
  "devdoc": {
    "kind": "dev",
    "methods": {},
    "version": 1
  },
  "userdoc": {
    "kind": "user",
    "methods": {},
    "version": 1
  }
}