{
  "contractName": "PipeUser",
  "abi": [
    {
      "inputs": [
        {
          "internalType": "address",
          "name": "pipeAddress",
          "type": "address"
        },
        {
          "internalType": "address",
          "name": "tokenAddress",
          "type": "address"
        },
        {
          "internalType": "bytes32",
          "name": "beamPipeUserCid",
          "type": "bytes32"
        }
      ],
      "stateMutability": "nonpayable",
      "type": "constructor"
    },
    {
      "inputs": [
        {
          "internalType": "uint256",
          "name": "msgId",
          "type": "uint256"
        }
      ],
      "name": "receiveFunds",
      "outputs": [],
      "stateMutability": "nonpayable",
      "type": "function"
    },
    {
      "inputs": [
        {
          "internalType": "uint64",
          "name": "value",
          "type": "uint64"
        },
        {
          "internalType": "bytes",
          "name": "receiverBeamPubkey",
          "type": "bytes"
        }
      ],
      "name": "sendFunds",
      "outputs": [],
      "stateMutability": "nonpayable",
      "type": "function"
    },
    {
      "inputs": [
        {
          "internalType": "bytes32",
          "name": "remoteContractId",
          "type": "bytes32"
        }
      ],
      "name": "setRemote",
      "outputs": [],
      "stateMutability": "nonpayable",
      "type": "function"
    },
    {
      "inputs": [],
      "name": "viewIncoming",
      "outputs": [
        {
          "internalType": "uint32[]",
          "name": "",
          "type": "uint32[]"
        },
        {
          "internalType": "uint64[]",
          "name": "",
          "type": "uint64[]"
        }
      ],
      "stateMutability": "view",
      "type": "function",
      "constant": true
    }
  ],
  "bytecode": "0x608060405234801561001057600080fd5b50604051610e3f380380610e3f8339818101604052606081101561003357600080fd5b5080516020820151604090920151600080546001600160a01b039384166001600160a01b0319918216179091556001805493909416921691909117909155600255610dbc806100836000396000f3fe608060405234801561001057600080fd5b506004361061004c5760003560e01c8063158df419146100515780638827e09b146100705780638bbc94f61461008d5780639653d0dc1461012e575b600080fd5b61006e6004803603602081101561006757600080fd5b50356101e5565b005b61006e6004803603602081101561008657600080fd5b50356101ea565b610095610376565b604051808060200180602001838103835285818151815260200191508051906020019060200280838360005b838110156100d95781810151838201526020016100c1565b50505050905001838103825284818151815260200191508051906020019060200280838360005b83811015610118578181015183820152602001610100565b5050505090500194505050505060405180910390f35b61006e6004803603604081101561014457600080fd5b67ffffffffffffffff823516919081019060408101602082013564010000000081111561017057600080fd5b82018360208201111561018257600080fd5b803590602001918460018302840111640100000000831117156101a457600080fd5b91908080601f016020809104026020016040519081016040528093929190818152602001838380828437600092019190915250929550610751945050505050565b600255565b60008054604080517f66a068370000000000000000000000000000000000000000000000000000000081526004810185905290516060936001600160a01b03909316926366a06837926024808201939182900301818387803b15801561024f57600080fd5b505af1158015610263573d6000803e3d6000fd5b505050506040513d6000823e601f3d908101601f19168201604052602081101561028c57600080fd5b81019080805160405193929190846401000000008211156102ac57600080fd5b9083019060208201858111156102c157600080fd5b82516401000000008111828201881017156102db57600080fd5b82525081516020918201929091019080838360005b838110156103085781810151838201526020016102f0565b50505050905090810190601f1680156103355780820380516001836020036101000a031916815260200191505b50604052505050905060008061034a836108cf565b6001549193509150610370906001600160a01b03168367ffffffffffffffff84166108f9565b50505050565b606080606060008054906101000a90046001600160a01b03166001600160a01b031663aa88c1906040518163ffffffff1660e01b815260040160006040518083038186803b1580156103c757600080fd5b505afa1580156103db573d6000803e3d6000fd5b505050506040513d6000823e601f3d908101601f19168201604052602081101561040457600080fd5b810190808051604051939291908464010000000082111561042457600080fd5b90830190602082018581111561043957600080fd5b825186602082028301116401000000008211171561045657600080fd5b82525081516020918201928201910280838360005b8381101561048357818101518382015260200161046b565b5050505090500160405250505090506060815167ffffffffffffffff811180156104ac57600080fd5b506040519080825280602002602001820160405280156104d6578160200160208202803683370190505b5090506060825167ffffffffffffffff811180156104f357600080fd5b5060405190808252806020026020018201604052801561051d578160200160208202803683370190505b5090506000805b845181101561074557600080606060008054906101000a90046001600160a01b03166001600160a01b031663ce11768889868151811061056057fe5b60200260200101516040518263ffffffff1660e01b81526004018082815260200191505060006040518083038186803b15801561059c57600080fd5b505afa1580156105b0573d6000803e3d6000fd5b505050506040513d6000823e601f3d908101601f1916820160405260608110156105d957600080fd5b8151602083015160408085018051915193959294830192918464010000000082111561060457600080fd5b90830190602082018581111561061957600080fd5b825164010000000081118282018810171561063357600080fd5b82525081516020918201929091019080838360005b83811015610660578181015183820152602001610648565b50505050905090810190601f16801561068d5780820380516001836020036101000a031916815260200191505b5060405250505092509250925081600014806106ab57506002548214155b156106b85750505061073d565b6000806106c4836108cf565b9092509050336001600160a01b038316141561073757848988815181106106e757fe5b602002602001019063ffffffff16908163ffffffff16815250508088888060010199508151811061071457fe5b602002602001019067ffffffffffffffff16908167ffffffffffffffff16815250505b50505050505b600101610524565b50919450925050509091565b600154610773906001600160a01b0316333067ffffffffffffffff861661097e565b60008054906101000a90046001600160a01b03166001600160a01b031663eb52933a60025483856040516020018083805190602001908083835b602083106107cc5780518252601f1990920191602091820191016107ad565b6001836020036101000a0380198251168184511680821785525050505050509050018267ffffffffffffffff1660c01b8152600801925050506040516020818303038152906040526040518363ffffffff1660e01b81526004018083815260200180602001828103825283818151815260200191508051906020019080838360005b8381101561086657818101518382015260200161084e565b50505050905090810190601f1680156108935780820380516001836020036101000a031916815260200191505b509350505050600060405180830381600087803b1580156108b357600080fd5b505af11580156108c7573d6000803e3d6000fd5b505050505050565b6000806000602084015160601c9250603484015190506108f18160c01c610a06565b915050915091565b604080516001600160a01b038416602482015260448082018490528251808303909101815260649091019091526020810180517bffffffffffffffffffffffffffffffffffffffffffffffffffffffff167fa9059cbb00000000000000000000000000000000000000000000000000000000179052610979908490610a65565b505050565b604080516001600160a01b0380861660248301528416604482015260648082018490528251808303909101815260849091019091526020810180517bffffffffffffffffffffffffffffffffffffffffffffffffffffffff167f23b872dd00000000000000000000000000000000000000000000000000000000179052610370908590610a65565b600881811b67ff00ff00ff00ff001666ff00ff00ff00ff9290911c9190911617601081811b67ffff0000ffff00001665ffff0000ffff9290911c9190911617602081811b6bffffffffffffffff000000001691901c63ffffffff161790565b6060610aba826040518060400160405280602081526020017f5361666545524332303a206c6f772d6c6576656c2063616c6c206661696c6564815250856001600160a01b0316610b169092919063ffffffff16565b80519091501561097957808060200190516020811015610ad957600080fd5b50516109795760405162461bcd60e51b815260040180806020018281038252602a815260200180610d5d602a913960400191505060405180910390fd5b6060610b258484600085610b2f565b90505b9392505050565b60603031831115610b715760405162461bcd60e51b8152600401808060200182810382526026815260200180610d376026913960400191505060405180910390fd5b610b7a85610c8c565b610bcb576040805162461bcd60e51b815260206004820152601d60248201527f416464726573733a2063616c6c20746f206e6f6e2d636f6e7472616374000000604482015290519081900360640190fd5b60006060866001600160a01b031685876040518082805190602001908083835b60208310610c0a5780518252601f199092019160209182019101610beb565b6001836020036101000a03801982511681845116808217855250505050505090500191505060006040518083038185875af1925050503d8060008114610c6c576040519150601f19603f3d011682016040523d82523d6000602084013e610c71565b606091505b5091509150610c81828286610c92565b979650505050505050565b3b151590565b60608315610ca1575081610b28565b825115610cb15782518084602001fd5b8160405162461bcd60e51b81526004018080602001828103825283818151815260200191508051906020019080838360005b83811015610cfb578181015183820152602001610ce3565b50505050905090810190601f168015610d285780820380516001836020036101000a031916815260200191505b509250505060405180910390fdfe416464726573733a20696e73756666696369656e742062616c616e636520666f722063616c6c5361666545524332303a204552433230206f7065726174696f6e20646964206e6f742073756363656564a2646970667358221220f360fff92c7351a8300f46537972ee42cf257d7283b573e6cff1b6761b07165c64736f6c63430007020033",
  "immutableReferences": {},
  "source": "// SPDX-License-Identifier: MIT\r\npragma solidity ^0.7.2;\r\n\r\nimport \"./Pipe.sol\";\r\nimport \"openzeppelin-solidity/contracts/math/SafeMath.sol\";\r\nimport \"openzeppelin-solidity/contracts/utils/Address.sol\";\r\nimport \"openzeppelin-solidity/contracts/token/ERC20/SafeERC20.sol\";\r\nimport \"openzeppelin-solidity/contracts/token/ERC20/IERC20.sol\";\r\n\r\ncontract PipeUser {\r\n    using SafeERC20 for IERC20;\r\n    address m_pipeAddress;\r\n    address m_tokenAddress;\r\n    bytes32 m_beamPipeUserCid;\r\n\r\n    constructor(address pipeAddress, address tokenAddress, bytes32 beamPipeUserCid)\r\n    {\r\n        m_pipeAddress = pipeAddress;\r\n        m_tokenAddress = tokenAddress;\r\n        m_beamPipeUserCid = beamPipeUserCid;\r\n    }\r\n\r\n    function parseRemoteMsgBody(bytes memory value)\r\n        private\r\n        pure\r\n        returns (address receiver, uint64 amount)\r\n    {\r\n        // parse msg: [address][uint64 value]\r\n        bytes8 tmp;\r\n        assembly {\r\n            receiver := shr(96, mload(add(value, 32)))\r\n            tmp := mload(add(value, 52))\r\n        }\r\n        amount = BeamUtils.reverse64(uint64(tmp));\r\n    }\r\n\r\n    function receiveFunds(uint msgId)\r\n        public\r\n    {\r\n        bytes memory value = Pipe(m_pipeAddress).getRemoteMessage(msgId);\r\n        (address receiver, uint64 amount) = parseRemoteMsgBody(value);\r\n\r\n        IERC20(m_tokenAddress).safeTransfer(receiver, amount);\r\n    }\r\n\r\n    function sendFunds(uint64 value, bytes memory receiverBeamPubkey)\r\n        public\r\n    {\r\n        IERC20(m_tokenAddress).safeTransferFrom(msg.sender, address(this), value);\r\n\r\n        Pipe(m_pipeAddress).pushLocalMessage(m_beamPipeUserCid, abi.encodePacked(receiverBeamPubkey, value));\r\n    }\r\n\r\n    function setRemote(bytes32 remoteContractId)\r\n        public\r\n    {\r\n        m_beamPipeUserCid = remoteContractId;\r\n    }\r\n\r\n    function viewIncoming()\r\n        public\r\n        view\r\n        returns (uint32[] memory, uint64[] memory)\r\n    {\r\n        bytes32[] memory keys = Pipe(m_pipeAddress).getRemoteMsgKeys();\r\n        uint32[] memory msgIds = new uint32[](keys.length);\r\n        uint64[] memory amounts = new uint64[](keys.length);\r\n        uint j = 0;\r\n        for (uint i = 0; i < keys.length; i++) {\r\n            (uint32 msgId, bytes32 contractSender, bytes memory value) = Pipe(m_pipeAddress).getRemoteMsgByKey(keys[i]);\r\n            if (contractSender == \"\" || contractSender != m_beamPipeUserCid) {\r\n                continue;\r\n            }\r\n            \r\n            (address receiver, uint64 amount) = parseRemoteMsgBody(value);\r\n            if (msg.sender == receiver) {\r\n                msgIds[j] = msgId;\r\n                amounts[j++] = amount;\r\n            }\r\n        }\r\n\r\n        return (msgIds, amounts);\r\n    }\r\n}",
  "sourcePath": "D:/work/bridge/beam-bridge-ethpipe/contracts/PipeUser.sol",
  "compiler": {
    "name": "solc",
    "version": "0.7.2+commit.51b20bc0.Emscripten.clang"
  },
  "schemaVersion": "3.4.1",
  "updatedAt": "2021-08-03T16:07:22.654Z",
  "networkType": "ethereum",
  "devdoc": {
    "kind": "dev",
    "methods": {},
    "version": 1
  },
  "userdoc": {
    "kind": "user",
    "methods": {},
    "version": 1
  }
}