{
  "contractName": "Pipe",
  "abi": [
    {
      "inputs": [
        {
          "internalType": "address",
          "name": "tokenAddress",
          "type": "address"
        },
        {
          "internalType": "bytes32",
          "name": "remotePipeCid",
          "type": "bytes32"
        }
      ],
      "stateMutability": "nonpayable",
      "type": "constructor"
    },
    {
      "anonymous": false,
      "inputs": [
        {
          "indexed": false,
          "internalType": "uint32",
          "name": "msgId",
          "type": "uint32"
        },
        {
          "indexed": false,
          "internalType": "address",
          "name": "msgContractSender",
          "type": "address"
        },
        {
          "indexed": false,
          "internalType": "bytes32",
          "name": "msgContractReceiver",
          "type": "bytes32"
        },
        {
          "indexed": false,
          "internalType": "uint64",
          "name": "amount",
          "type": "uint64"
        },
        {
          "indexed": false,
          "internalType": "bytes",
          "name": "receiver",
          "type": "bytes"
        }
      ],
      "name": "NewLocalMessage",
      "type": "event"
    },
    {
      "inputs": [
        {
          "internalType": "bytes32",
          "name": "remotePipeCid",
          "type": "bytes32"
        }
      ],
      "name": "setRemote",
      "outputs": [],
      "stateMutability": "nonpayable",
      "type": "function"
    },
    {
      "inputs": [
        {
          "internalType": "uint256",
          "name": "msgId",
          "type": "uint256"
        },
        {
          "internalType": "bytes32",
          "name": "msgContractSender",
          "type": "bytes32"
        },
        {
          "internalType": "address",
          "name": "msgContractReceiver",
          "type": "address"
        },
        {
          "internalType": "uint64",
          "name": "height",
          "type": "uint64"
        },
        {
          "internalType": "uint64",
          "name": "timestamp",
          "type": "uint64"
        },
        {
          "internalType": "uint64",
          "name": "amount",
          "type": "uint64"
        },
        {
          "internalType": "address",
          "name": "receiver",
          "type": "address"
        }
      ],
      "name": "pushRemoteMessage",
      "outputs": [],
      "stateMutability": "nonpayable",
      "type": "function"
    },
    {
      "inputs": [
        {
          "internalType": "uint256",
          "name": "msgId",
          "type": "uint256"
        },
        {
          "internalType": "bytes32",
          "name": "prev",
          "type": "bytes32"
        },
        {
          "internalType": "bytes32",
          "name": "chainWork",
          "type": "bytes32"
        },
        {
          "internalType": "bytes32",
          "name": "kernels",
          "type": "bytes32"
        },
        {
          "internalType": "bytes32",
          "name": "definition",
          "type": "bytes32"
        },
        {
          "internalType": "uint64",
          "name": "height",
          "type": "uint64"
        },
        {
          "internalType": "uint64",
          "name": "timestamp",
          "type": "uint64"
        },
        {
          "internalType": "bytes",
          "name": "pow",
          "type": "bytes"
        },
        {
          "internalType": "bytes32",
          "name": "rulesHash",
          "type": "bytes32"
        },
        {
          "internalType": "bytes",
          "name": "proof",
          "type": "bytes"
        }
      ],
      "name": "validateRemoteMessage",
      "outputs": [],
      "stateMutability": "nonpayable",
      "type": "function"
    },
    {
      "inputs": [
        {
          "internalType": "uint256",
          "name": "msgId",
          "type": "uint256"
        }
      ],
      "name": "finalyzeRemoteMessage",
      "outputs": [],
      "stateMutability": "nonpayable",
      "type": "function"
    },
    {
      "inputs": [
        {
          "internalType": "uint256",
          "name": "msgId",
          "type": "uint256"
        }
      ],
      "name": "receiveFunds",
      "outputs": [],
      "stateMutability": "nonpayable",
      "type": "function"
    },
    {
      "inputs": [
        {
          "internalType": "uint64",
          "name": "value",
          "type": "uint64"
        },
        {
          "internalType": "bytes",
          "name": "receiverBeamPubkey",
          "type": "bytes"
        }
      ],
      "name": "sendFunds",
      "outputs": [],
      "stateMutability": "nonpayable",
      "type": "function"
    },
    {
      "inputs": [],
      "name": "viewIncoming",
      "outputs": [
        {
          "internalType": "uint32[]",
          "name": "",
          "type": "uint32[]"
        },
        {
          "internalType": "uint64[]",
          "name": "",
          "type": "uint64[]"
        }
      ],
      "stateMutability": "view",
      "type": "function",
      "constant": true
    }
  ],
  "bytecode": "0x608060405234801561001057600080fd5b50604051611ba1380380611ba18339818101604052604081101561003357600080fd5b508051602090910151600080546001600160a01b0390931664010000000002600160201b600160c01b031990931692909217909155600155611b278061007a6000396000f3fe608060405234801561001057600080fd5b506004361061007d5760003560e01c80638827e09b1161005b5780638827e09b1461022e5780638bbc94f61461024b5780639653d0dc146102ec578063a9198d81146103a35761007d565b8063158df419146100825780637de00d3a146100a15780637ed584dd14610211575b600080fd5b61009f6004803603602081101561009857600080fd5b50356103ff565b005b61009f60048036036101408110156100b857600080fd5b81359160208101359160408201359160608101359160808201359167ffffffffffffffff60a082013581169260c08301359091169190810190610100810160e082013564010000000081111561010d57600080fd5b82018360208201111561011f57600080fd5b8035906020019184600183028401116401000000008311171561014157600080fd5b91908080601f0160208091040260200160405190810160405280939291908181526020018383808284376000920191909152509295843595909490935060408101925060200135905064010000000081111561019c57600080fd5b8201836020820111156101ae57600080fd5b803590602001918460018302840111640100000000831117156101d057600080fd5b91908080601f016020809104026020016040519081016040528093929190818152602001838380828437600092019190915250929550610404945050505050565b61009f6004803603602081101561022757600080fd5b50356105bb565b61009f6004803603602081101561024457600080fd5b5035610649565b6102536108be565b604051808060200180602001838103835285818151815260200191508051906020019060200280838360005b8381101561029757818101518382015260200161027f565b50505050905001838103825284818151815260200191508051906020019060200280838360005b838110156102d65781810151838201526020016102be565b5050505090500194505050505060405180910390f35b61009f6004803603604081101561030257600080fd5b67ffffffffffffffff823516919081019060408101602082013564010000000081111561032e57600080fd5b82018360208201111561034057600080fd5b8035906020019184600183028401116401000000008311171561036257600080fd5b91908080601f016020809104026020016040519081016040528093929190818152602001838380828437600092019190915250929550610ae1945050505050565b61009f600480360360e08110156103b957600080fd5b508035906020810135906001600160a01b03604082013581169167ffffffffffffffff6060820135811692608083013582169260a08101359092169160c0013516610c58565b600155565b600061040f8b610f09565b60008181526002602052604090205490915060ff1615610476576040805162461bcd60e51b815260206004820152601260248201527f616c72656164792066696e616c697a65642e0000000000000000000000000000604482015290519081900360640190fd5b60606104818c610f42565b6001805460008581526002602090815260408083209094015484519182019390935230606090811b82860152680100000000000000008404901b7fffffffffffffffffffffffffffffffffffffffff00000000000000000000000016605482015260c09290921b7fffffffffffffffff00000000000000000000000000000000000000000000000016606883015282518083036050018152607090920190925291925061052e8383610fbf565b9050600061053c82876111d4565b90508a8114610592576040805162461bcd60e51b815260206004820152600d60248201527f696e76616c69642070726f6f6600000000000000000000000000000000000000604482015290519081900360640190fd5b505050600091825250600260205260409020805460ff1916600117905550505050505050505050565b60006105c682610f09565b60008181526002602052604090205490915060ff161561062d576040805162461bcd60e51b815260206004820152601260248201527f616c72656164792066696e616c697a65642e0000000000000000000000000000604482015290519081900360640190fd5b6000908152600260205260409020805460ff1916600117905550565b600061065482610f09565b60008181526002602052604090205490915060ff166106ba576040805162461bcd60e51b815260206004820152601b60248201527f6d6573736167652073686f756c642062652066696e616c697a65640000000000604482015290519081900360640190fd5b6106c26119cd565b50600081815260026020908152604091829020825160e081018452815460ff811615158252610100810463ffffffff90811694830185905265010000000000820416948201949094526901000000000000000000840467ffffffffffffffff9081166060830152710100000000000000000000000000000000009094048416608082015260019091015492831660a0820152680100000000000000009092046001600160a01b031660c083015260035460001901146107f6576003805460009190600019810190811061079157fe5b90600052602060002001549050806003836020015163ffffffff16815481106107b657fe5b600091825260208083209091019290925583820151928152600290915260409020805463ffffffff9092166101000264ffffffff00199092169190911790555b600082815260026020526040902080547fffffffffffffff0000000000000000000000000000000000000000000000000016815560010180547fffffffff00000000000000000000000000000000000000000000000000000000169055600380548061085e57fe5b600190038181906000526020600020016000905590556108b98160c001518260a0015167ffffffffffffffff16600060049054906101000a90046001600160a01b03166001600160a01b03166114df9092919063ffffffff16565b505050565b606080606060038054905067ffffffffffffffff811180156108df57600080fd5b50604051908082528060200260200182016040528015610909578160200160208202803683370190505b5060035490915060609067ffffffffffffffff8111801561092957600080fd5b50604051908082528060200260200182016040528015610953578160200160208202803683370190505b5090506000805b600354811015610ad65761096c6119cd565b600260006003848154811061097d57fe5b600091825260208083209091015483528281019390935260409182019020815160e081018352815460ff81161515825263ffffffff61010082048116958301959095526501000000000081049094169281019290925267ffffffffffffffff690100000000000000000084048116606084015271010000000000000000000000000000000000909304831660808301526001015491821660a08201526001600160a01b03680100000000000000009092049190911660c0820181905290915015801590610a48575080515b8015610a6957508060c001516001600160a01b0316336001600160a01b0316145b15610acd578060400151858481518110610a7f57fe5b63ffffffff9092166020928302919091019091015260a08101518451600185019486918110610aaa57fe5b602002602001019067ffffffffffffffff16908167ffffffffffffffff16815250505b5060010161095a565b509193509150509091565b8051602114610b215760405162461bcd60e51b815260040180806020018281038252602a815260200180611a9e602a913960400191505060405180910390fd5b600054610b4b9064010000000090046001600160a01b0316333067ffffffffffffffff861661155f565b600080547fffffffffffffffffffffffffffffffffffffffffffffffffffffffff000000008116600163ffffffff928316818101909316919091178355546040805183815230602080830182905292820184905267ffffffffffffffff8816606083015260a06080830181815288519184019190915287517fc100eb5346524dab51a7fa22ddd83ee61f6141765f3dcc12c69ffccfa2aca059979295948a948a9490939260c08501928601918190849084905b83811015610c16578181015183820152602001610bfe565b50505050905090810190601f168015610c435780820380516001836020036101000a031916815260200191505b50965050505050505060405180910390a15050565b6000610c6388610f09565b6000818152600260205260409020600101549091506801000000000000000090046001600160a01b031615610cdf576040805162461bcd60e51b815260206004820152601060248201527f6d65737361676520697320657869737400000000000000000000000000000000604482015290519081900360640190fd5b6001548714610d1f5760405162461bcd60e51b8152600401808060200182810382526021815260200180611a7d6021913960400191505060405180910390fd5b6001600160a01b0386163014610d7c576040805162461bcd60e51b815260206004820152601f60248201527f696e76616c6964207265636569766572206f6620746865206d65737361676500604482015290519081900360640190fd5b60038054600180820183557fc2575a0e9e593c00f959f8c92f12db2869c3395a3b0502d05e2516446f71f85b9091018390559054600092835260026020526040909220805491810180547fffffffff0000000000000000000000000000000000000000ffffffffffffffff16680100000000000000006001600160a01b039690961695909502949094177fffffffffffffffffffffffffffffffffffffffffffffffff00000000000000001667ffffffffffffffff9586161790935564ffffffff00191661010060001990920163ffffffff90811692909202177fffffffffffffffffffffffffffffffffffffffffffffff00000000ffffffffff16650100000000009890911697909702969096177fffffffffffffffffffffffffffffff0000000000000000ffffffffffffffffff16690100000000000000000093821693909302929092177fffffffffffffff0000000000000000ffffffffffffffffffffffffffffffffff167101000000000000000000000000000000000091909216021760ff19169092555050565b600081604051602001808263ffffffff1660e01b8152600401915050604051602081830303815290604052805190602001209050919050565b6001546040805160208101929092526000828201527f020000000000000000000000000000000000000000000000000000000000000060418301527fffffffff0000000000000000000000000000000000000000000000000000000060e084901b1660428301528051602681840301815260469092019052919050565b60006060610fcd84516115ed565b84610fd885516115ed565b8560405160200180807f6265616d2e636f6e74726163742e76616c00000000000000000000000000000081525060120185805190602001908083835b602083106110335780518252601f199092019160209182019101611014565b51815160209384036101000a600019018019909216911617905287519190930192870191508083835b6020831061107b5780518252601f19909201916020918201910161105c565b51815160209384036101000a600019018019909216911617905286519190930192860191508083835b602083106110c35780518252601f1990920191602091820191016110a4565b51815160209384036101000a600019018019909216911617905285519190930192850191508083835b6020831061110b5780518252601f1990920191602091820191016110ec565b6001836020036101000a03801982511681845116808217855250505050505090500194505050505060405160208183030381529060405290506002816040518082805190602001908083835b602083106111765780518252601f199092019160209182019101611157565b51815160209384036101000a60001901801990921691161790526040519190930194509192505080830381855afa1580156111b5573d6000803e3d6000fd5b5050506040513d60208110156111ca57600080fd5b5051949350505050565b600060218251816111e157fe5b0615611234576040805162461bcd60e51b815260206004820152601f60248201527f756e6578706563746564206c656e676874206f66207468652070726f6f662e00604482015290519081900360640190fd5b6120df8251106112755760405162461bcd60e51b8152600401808060200182810382526024815260200180611a0a6024913960400191505060405180910390fd5b50816000805b83518161ffff1610156114d757806021850101519150600260f81b848261ffff16815181106112a657fe5b01602001517fff0000000000000000000000000000000000000000000000000000000000000016106113095760405162461bcd60e51b8152600401808060200182810382526029815260200180611a546029913960400191505060405180910390fd5b838161ffff168151811061131957fe5b6020910101517fff00000000000000000000000000000000000000000000000000000000000000167f01000000000000000000000000000000000000000000000000000000000000001461141d576002828460405160200180838152602001828152602001925050506040516020818303038152906040526040518082805190602001908083835b602083106113c05780518252601f1990920191602091820191016113a1565b51815160209384036101000a60001901801990921691161790526040519190930194509192505080830381855afa1580156113ff573d6000803e3d6000fd5b5050506040513d602081101561141457600080fd5b505192506114cf565b6002838360405160200180838152602001828152602001925050506040516020818303038152906040526040518082805190602001908083835b602083106114765780518252601f199092019160209182019101611457565b51815160209384036101000a60001901801990921691161790526040519190930194509192505080830381855afa1580156114b5573d6000803e3d6000fd5b5050506040513d60208110156114ca57600080fd5b505192505b60210161127b565b505092915050565b604080516001600160a01b038416602482015260448082018490528251808303909101815260649091019091526020810180517bffffffffffffffffffffffffffffffffffffffffffffffffffffffff167fa9059cbb000000000000000000000000000000000000000000000000000000001790526108b99084906116fc565b604080516001600160a01b0380861660248301528416604482015260648082018490528251808303909101815260849091019091526020810180517bffffffffffffffffffffffffffffffffffffffffffffffffffffffff167f23b872dd000000000000000000000000000000000000000000000000000000001790526115e79085906116fc565b50505050565b6060805b6080831061167f5780836080176040516020018083805190602001908083835b602083106116305780518252601f199092019160209182019101611611565b6001836020036101000a0380198251168184511680821785525050505050509050018260ff1660f81b8152600101925050506040516020818303038152906040529050600783901c92506115f1565b80836040516020018083805190602001908083835b602083106116b35780518252601f199092019160209182019101611694565b6001836020036101000a0380198251168184511680821785525050505050509050018260ff1660f81b815260010192505050604051602081830303815290604052915050919050565b6060611751826040518060400160405280602081526020017f5361666545524332303a206c6f772d6c6576656c2063616c6c206661696c6564815250856001600160a01b03166117ad9092919063ffffffff16565b8051909150156108b95780806020019051602081101561177057600080fd5b50516108b95760405162461bcd60e51b815260040180806020018281038252602a815260200180611ac8602a913960400191505060405180910390fd5b60606117bc84846000856117c6565b90505b9392505050565b606030318311156118085760405162461bcd60e51b8152600401808060200182810382526026815260200180611a2e6026913960400191505060405180910390fd5b61181185611923565b611862576040805162461bcd60e51b815260206004820152601d60248201527f416464726573733a2063616c6c20746f206e6f6e2d636f6e7472616374000000604482015290519081900360640190fd5b60006060866001600160a01b031685876040518082805190602001908083835b602083106118a15780518252601f199092019160209182019101611882565b6001836020036101000a03801982511681845116808217855250505050505090500191505060006040518083038185875af1925050503d8060008114611903576040519150601f19603f3d011682016040523d82523d6000602084013e611908565b606091505b5091509150611918828286611929565b979650505050505050565b3b151590565b606083156119385750816117bf565b8251156119485782518084602001fd5b8160405162461bcd60e51b81526004018080602001828103825283818151815260200191508051906020019080838360005b8381101561199257818101518382015260200161197a565b50505050905090810190601f1680156119bf5780820380516001836020036101000a031916815260200191505b509250505060405180910390fd5b6040805160e081018252600080825260208201819052918101829052606081018290526080810182905260a0810182905260c08101919091529056fe746865206c656e677468206f66207468652070726f6f6620697320746f6f206c6f6e672e416464726573733a20696e73756666696369656e742062616c616e636520666f722063616c6c4d65726b6c65506174684974656d20646972656374696f6e2073686f756c642062652030206f722031756e737570706f727465642073656e646572206f6620746865206d657373616765756e65787065637465642073697a65206f66207468652072656365697665724265616d5075626b65792e5361666545524332303a204552433230206f7065726174696f6e20646964206e6f742073756363656564a2646970667358221220f1cd0b3736b6c339c6f510ad48a88c0b75d0f15290e6bb75a5df851a52b0ffc364736f6c63430007020033",
  "immutableReferences": {},
  "source": "// SPDX-License-Identifier: MIT\r\npragma solidity ^0.7.2;\r\n\r\nimport \"openzeppelin-solidity/contracts/math/SafeMath.sol\";\r\nimport \"openzeppelin-solidity/contracts/utils/Address.sol\";\r\nimport \"openzeppelin-solidity/contracts/token/ERC20/SafeERC20.sol\";\r\nimport \"openzeppelin-solidity/contracts/token/ERC20/IERC20.sol\";\r\n\r\nimport \"./BeamHeader.sol\";\r\nimport \"./BeamUtils.sol\";\r\n\r\ncontract Pipe {\r\n    using SafeERC20 for IERC20;\r\n    // config:\r\n    // uint256 comissionPerMsg;\r\n    // uint256 stakeForRemoteMsg;\r\n    // uint64  disputePeriod;\r\n    // uint64  contenderWaitPeriod;\r\n\r\n    // incoming messages\r\n    struct RemoteMessage {\r\n        bool finalized;\r\n        // index in array m_remoteMsgsKeys\r\n        uint32 index;\r\n        // header:\r\n        uint32 msgId;\r\n        // TODO: hash?\r\n        uint64 height;\r\n        uint64 timestamp;\r\n        // body\r\n        uint64 amount;\r\n        address receiver;\r\n    }\r\n\r\n    uint32 m_localMsgCounter;\r\n    address m_tokenAddress;\r\n    bytes32 m_remotePipeCid;\r\n    mapping (bytes32 => RemoteMessage) m_remoteMessages;\r\n    bytes32[] m_remoteMsgsKeys;\r\n\r\n    // LocalMessage {\r\n    //     // header:\r\n    //     uint32 msgId;\r\n    //     address msgContractSender; // eth contract address\r\n    //     bytes32 msgContractReceiver; // beam contract id\r\n\r\n    //     // msg body\r\n    //     uint64 value;\r\n    //     bytes receiver; // beam pubKey - 33 bytes\r\n    // }\r\n    event NewLocalMessage(uint32 msgId, address msgContractSender, bytes32 msgContractReceiver, uint64 amount, bytes receiver);\r\n\r\n    constructor(address tokenAddress, bytes32 remotePipeCid)\r\n    {\r\n        m_tokenAddress = tokenAddress;\r\n        m_remotePipeCid = remotePipeCid;\r\n    }\r\n\r\n    // TODO: remove after testing\r\n    function setRemote(bytes32 remotePipeCid)\r\n        public\r\n    {\r\n        m_remotePipeCid = remotePipeCid;\r\n    }\r\n\r\n    function pushRemoteMessage(uint msgId,\r\n                               bytes32 msgContractSender,       // beam contract id\r\n                               address msgContractReceiver,     // eth contract address\r\n                               uint64 height,\r\n                               uint64 timestamp,\r\n                               uint64 amount,\r\n                               address receiver)\r\n        public\r\n    {\r\n        bytes32 key = getRemoteMsgKey(msgId);\r\n\r\n        require(m_remoteMessages[key].receiver == address(0), \"message is exist\");\r\n        require(msgContractSender == m_remotePipeCid, \"unsupported sender of the message\");\r\n        require(msgContractReceiver == address(this), \"invalid receiver of the message\");\r\n\r\n        m_remoteMsgsKeys.push(key);\r\n\r\n        m_remoteMessages[key].index = uint32(m_remoteMsgsKeys.length - 1);\r\n        m_remoteMessages[key].msgId = uint32(msgId);\r\n        m_remoteMessages[key].height = height;\r\n        m_remoteMessages[key].timestamp = timestamp;\r\n        m_remoteMessages[key].receiver = receiver;\r\n        m_remoteMessages[key].amount = amount;\r\n        m_remoteMessages[key].finalized = false;\r\n    }\r\n\r\n    function validateRemoteMessage(uint msgId, \r\n                                   // params of block\r\n                                   bytes32 prev,\r\n                                   bytes32 chainWork,\r\n                                   bytes32 kernels,\r\n                                   bytes32 definition,\r\n                                   uint64 height,\r\n                                   uint64 timestamp,\r\n                                   bytes memory pow,\r\n                                   bytes32 rulesHash,\r\n                                   bytes memory proof)\r\n        public\r\n    {\r\n        bytes32 key = getRemoteMsgKey(msgId);\r\n        require(!m_remoteMessages[key].finalized, \"already finalized.\");\r\n        \r\n        // validate block header & proof of msg\r\n        // TODO: uncomment when stop using FakePow\r\n        // require(BeamHeader.isValid(prev, chainWork, kernels, definition, height, timestamp, pow, rulesHash), 'invalid header.');\r\n\r\n        bytes memory variableKey = getBeamVariableKey(msgId);\r\n        bytes memory ecodedMsg = abi.encodePacked(m_remotePipeCid, address(this), m_remoteMessages[key].receiver, m_remoteMessages[key].amount);\r\n        bytes32 variableHash = BeamUtils.getContractVariableHash(variableKey, ecodedMsg);\r\n        bytes32 rootHash = BeamUtils.interpretMerkleProof(variableHash, proof);\r\n\r\n        require(rootHash == definition, \"invalid proof\");\r\n        m_remoteMessages[key].finalized = true;\r\n    }\r\n\r\n    function finalyzeRemoteMessage(uint msgId)\r\n        public\r\n    {\r\n        // TODO: dispute or time\r\n\r\n        bytes32 key = getRemoteMsgKey(msgId);\r\n        require(!m_remoteMessages[key].finalized, \"already finalized.\");\r\n        m_remoteMessages[key].finalized = true;\r\n    }\r\n\r\n    function receiveFunds(uint msgId)\r\n        public\r\n    {\r\n        bytes32 key = getRemoteMsgKey(msgId);\r\n        require(m_remoteMessages[key].finalized, \"message should be finalized\");\r\n\r\n        RemoteMessage memory tmp = m_remoteMessages[key];\r\n\r\n        // delete from keys\r\n        if (tmp.index != m_remoteMsgsKeys.length - 1) {\r\n            bytes32 lastKey = m_remoteMsgsKeys[m_remoteMsgsKeys.length - 1];\r\n            m_remoteMsgsKeys[tmp.index] = lastKey;\r\n            m_remoteMessages[lastKey].index = tmp.index;\r\n        }\r\n        delete m_remoteMessages[key];\r\n        m_remoteMsgsKeys.pop();\r\n\r\n        IERC20(m_tokenAddress).safeTransfer(tmp.receiver, tmp.amount);\r\n    }\r\n\r\n    function sendFunds(uint64 value, bytes memory receiverBeamPubkey)\r\n        public\r\n    {\r\n        require(receiverBeamPubkey.length == 33, \"unexpected size of the receiverBeamPubkey.\");\r\n\r\n        IERC20(m_tokenAddress).safeTransferFrom(msg.sender, address(this), value);\r\n\r\n        emit NewLocalMessage(m_localMsgCounter++, address(this), m_remotePipeCid, value, receiverBeamPubkey);\r\n    }\r\n\r\n    function viewIncoming()\r\n        public\r\n        view\r\n        returns (uint32[] memory, uint64[] memory)\r\n    {\r\n        // TODO:\r\n        uint32[] memory msgIds = new uint32[](m_remoteMsgsKeys.length);\r\n        uint64[] memory amounts = new uint64[](m_remoteMsgsKeys.length);\r\n        uint j = 0;\r\n        for (uint i = 0; i < m_remoteMsgsKeys.length; i++) {\r\n            RemoteMessage memory tmp = m_remoteMessages[m_remoteMsgsKeys[i]];\r\n\r\n            if (tmp.receiver != address(0) && tmp.finalized && msg.sender == tmp.receiver) {\r\n                msgIds[j] = tmp.msgId;\r\n                amounts[j++] = tmp.amount;\r\n            }\r\n        }\r\n\r\n        return (msgIds, amounts);\r\n    }\r\n\r\n    function getRemoteMsgKey(uint msgId)\r\n        private\r\n        pure\r\n        returns (bytes32 key)\r\n    {\r\n        key = keccak256(abi.encodePacked(uint32(msgId)));\r\n    }\r\n\r\n    function getBeamVariableKey(uint msgId)\r\n        private\r\n        view\r\n        returns (bytes memory)\r\n    {\r\n        // [contract_id,KeyTag::Internal(uint8 0),KeyType::OutCheckpoint(uint8 2),index_BE(uint32 'packageId')]\r\n        return abi.encodePacked(m_remotePipeCid, uint8(0), uint8(2), uint32(msgId));\r\n    }   \r\n}",
  "sourcePath": "d:\\work\\bridge\\beam-bridge-ethpipe\\contracts\\Pipe.sol",
  "compiler": {
    "name": "solc",
    "version": "0.7.2+commit.51b20bc0.Emscripten.clang"
  },
  "schemaVersion": "3.4.2",
  "updatedAt": "2021-09-28T07:33:10.824Z",
  "networkType": "ethereum",
  "devdoc": {
    "kind": "dev",
    "methods": {},
    "version": 1
  },
  "userdoc": {
    "kind": "user",
    "methods": {},
    "version": 1
  }
}