{
  "contractName": "Pipe",
  "abi": [
    {
      "inputs": [
        {
          "internalType": "address",
          "name": "tokenAddress",
          "type": "address"
        },
        {
          "internalType": "bytes32",
          "name": "remotePipeCid",
          "type": "bytes32"
        }
      ],
      "stateMutability": "nonpayable",
      "type": "constructor"
    },
    {
      "anonymous": false,
      "inputs": [
        {
          "indexed": false,
          "internalType": "uint32",
          "name": "msgId",
          "type": "uint32"
        },
        {
          "indexed": false,
          "internalType": "address",
          "name": "msgContractSender",
          "type": "address"
        },
        {
          "indexed": false,
          "internalType": "bytes32",
          "name": "msgContractReceiver",
          "type": "bytes32"
        },
        {
          "indexed": false,
          "internalType": "bytes",
          "name": "msgBody",
          "type": "bytes"
        }
      ],
      "name": "NewLocalMessage",
      "type": "event"
    },
    {
      "inputs": [
        {
          "internalType": "bytes32",
          "name": "remotePipeCid",
          "type": "bytes32"
        }
      ],
      "name": "setRemote",
      "outputs": [],
      "stateMutability": "nonpayable",
      "type": "function"
    },
    {
      "inputs": [
        {
          "internalType": "uint256",
          "name": "msgId",
          "type": "uint256"
        },
        {
          "internalType": "bytes32",
          "name": "msgContractSender",
          "type": "bytes32"
        },
        {
          "internalType": "address",
          "name": "msgContractReceiver",
          "type": "address"
        },
        {
          "internalType": "bytes",
          "name": "messageBody",
          "type": "bytes"
        }
      ],
      "name": "pushRemoteMessage",
      "outputs": [],
      "stateMutability": "nonpayable",
      "type": "function"
    },
    {
      "inputs": [
        {
          "internalType": "uint256",
          "name": "msgId",
          "type": "uint256"
        },
        {
          "internalType": "bytes32",
          "name": "prev",
          "type": "bytes32"
        },
        {
          "internalType": "bytes32",
          "name": "chainWork",
          "type": "bytes32"
        },
        {
          "internalType": "bytes32",
          "name": "kernels",
          "type": "bytes32"
        },
        {
          "internalType": "bytes32",
          "name": "definition",
          "type": "bytes32"
        },
        {
          "internalType": "uint64",
          "name": "height",
          "type": "uint64"
        },
        {
          "internalType": "uint64",
          "name": "timestamp",
          "type": "uint64"
        },
        {
          "internalType": "bytes",
          "name": "pow",
          "type": "bytes"
        },
        {
          "internalType": "bytes32",
          "name": "rulesHash",
          "type": "bytes32"
        },
        {
          "internalType": "bytes",
          "name": "proof",
          "type": "bytes"
        }
      ],
      "name": "validateRemoteMessage",
      "outputs": [],
      "stateMutability": "nonpayable",
      "type": "function"
    },
    {
      "inputs": [
        {
          "internalType": "uint256",
          "name": "msgId",
          "type": "uint256"
        }
      ],
      "name": "finalyzeRemoteMessage",
      "outputs": [],
      "stateMutability": "nonpayable",
      "type": "function"
    },
    {
      "inputs": [
        {
          "internalType": "uint256",
          "name": "msgId",
          "type": "uint256"
        }
      ],
      "name": "receiveFunds",
      "outputs": [],
      "stateMutability": "nonpayable",
      "type": "function"
    },
    {
      "inputs": [
        {
          "internalType": "uint64",
          "name": "value",
          "type": "uint64"
        },
        {
          "internalType": "bytes",
          "name": "receiverBeamPubkey",
          "type": "bytes"
        }
      ],
      "name": "sendFunds",
      "outputs": [],
      "stateMutability": "nonpayable",
      "type": "function"
    },
    {
      "inputs": [],
      "name": "viewIncoming",
      "outputs": [
        {
          "internalType": "uint32[]",
          "name": "",
          "type": "uint32[]"
        },
        {
          "internalType": "uint64[]",
          "name": "",
          "type": "uint64[]"
        }
      ],
      "stateMutability": "view",
      "type": "function"
    }
  ],
  "bytecode": "0x608060405234801561001057600080fd5b50604051611c23380380611c238339818101604052604081101561003357600080fd5b508051602090910151600080546001600160a01b0390931664010000000002600160201b600160c01b031990931692909217909155600155611ba98061007a6000396000f3fe608060405234801561001057600080fd5b506004361061007d5760003560e01c80637ed584dd1161005b5780637ed584dd146102d35780638827e09b146102f05780638bbc94f61461030d5780639653d0dc146103ae5761007d565b8063158df4191461008257806376fc6ba9146100a15780637de00d3a14610163575b600080fd5b61009f6004803603602081101561009857600080fd5b5035610465565b005b61009f600480360360808110156100b757600080fd5b8135916020810135916001600160a01b0360408301351691908101906080810160608201356401000000008111156100ee57600080fd5b82018360208201111561010057600080fd5b8035906020019184600183028401116401000000008311171561012257600080fd5b91908080601f01602080910402602001604051908101604052809392919081815260200183838082843760009201919091525092955061046a945050505050565b61009f600480360361014081101561017a57600080fd5b81359160208101359160408201359160608101359160808201359167ffffffffffffffff60a082013581169260c08301359091169190810190610100810160e08201356401000000008111156101cf57600080fd5b8201836020820111156101e157600080fd5b8035906020019184600183028401116401000000008311171561020357600080fd5b91908080601f0160208091040260200160405190810160405280939291908181526020018383808284376000920191909152509295843595909490935060408101925060200135905064010000000081111561025e57600080fd5b82018360208201111561027057600080fd5b8035906020019184600183028401116401000000008311171561029257600080fd5b91908080601f0160208091040260200160405190810160405280939291908181526020018383808284376000920191909152509295506106ba945050505050565b61009f600480360360208110156102e957600080fd5b5035610874565b61009f6004803603602081101561030657600080fd5b5035610902565b610315610b42565b604051808060200180602001838103835285818151815260200191508051906020019060200280838360005b83811015610359578181015183820152602001610341565b50505050905001838103825284818151815260200191508051906020019060200280838360005b83811015610398578181015183820152602001610380565b5050505090500194505050505060405180910390f35b61009f600480360360408110156103c457600080fd5b67ffffffffffffffff82351691908101906040810160208201356401000000008111156103f057600080fd5b82018360208201111561040257600080fd5b8035906020019184600183028401116401000000008311171561042457600080fd5b91908080601f016020809104026020016040519081016040528093929190818152602001838380828437600092019190915250929550610d34945050505050565b600155565b600061047585610ee4565b6000818152600260205260409020600101549091506001600160a01b0316156104e5576040805162461bcd60e51b815260206004820152601060248201527f6d65737361676520697320657869737400000000000000000000000000000000604482015290519081900360640190fd5b60015484146105255760405162461bcd60e51b8152600401808060200182810382526021815260200180611b296021913960400191505060405180910390fd5b6001600160a01b0383163014610582576040805162461bcd60e51b815260206004820152601f60248201527f696e76616c6964207265636569766572206f6620746865206d65737361676500604482015290519081900360640190fd5b600380546001810182557fc2575a0e9e593c00f959f8c92f12db2869c3395a3b0502d05e2516446f71f85b01829055546000828152600260205260409020805464ffffffff00191661010060001990930163ffffffff90811693909302177fffffffffffffffffffffffffffffffffffffffffffffff00000000ffffffffff16650100000000009288169290920291909117905561061f82610f1d565b60009283526002602052604090922080546001820180547fffffffffffffffffffffffff0000000000000000000000000000000000000000166001600160a01b0394909416939093179092557fffffffffffffffffffffffffffffff0000000000000000ffffffffffffffffff909116690100000000000000000067ffffffffffffffff909316929092029190911760ff1916905550505050565b60006106c58b610ee4565b60008181526002602052604090205490915060ff161561072c576040805162461bcd60e51b815260206004820152601260248201527f616c72656164792066696e616c697a65642e0000000000000000000000000000604482015290519081900360640190fd5b60606107378c610f9d565b60018054600085815260026020908152604080832094850154945481519283019490945230606090811b838301529490941b7fffffffffffffffffffffffffffffffffffffffff000000000000000000000000166054820152690100000000000000000090920460c01b7fffffffffffffffff0000000000000000000000000000000000000000000000001660688301528251808303605001815260709092019092529192506107e7838361101a565b905060006107f5828761122f565b90508a811461084b576040805162461bcd60e51b815260206004820152600d60248201527f696e76616c69642070726f6f6600000000000000000000000000000000000000604482015290519081900360640190fd5b505050600091825250600260205260409020805460ff1916600117905550505050505050505050565b600061087f82610ee4565b60008181526002602052604090205490915060ff16156108e6576040805162461bcd60e51b815260206004820152601260248201527f616c72656164792066696e616c697a65642e0000000000000000000000000000604482015290519081900360640190fd5b6000908152600260205260409020805460ff1916600117905550565b600061090d82610ee4565b60008181526002602052604090205490915060ff16610973576040805162461bcd60e51b815260206004820152601b60248201527f6d6573736167652073686f756c642062652066696e616c697a65640000000000604482015290519081900360640190fd5b61097b611a87565b50600081815260026020908152604091829020825160a081018452815460ff811615158252610100810463ffffffff9081169483018590526501000000000082041694820194909452690100000000000000000090930467ffffffffffffffff166060840152600101546001600160a01b031660808301526003546000190114610a7a5760038054600091906000198101908110610a1557fe5b90600052602060002001549050806003836020015163ffffffff1681548110610a3a57fe5b600091825260208083209091019290925583820151928152600290915260409020805463ffffffff9092166101000264ffffffff00199092169190911790555b600082815260026020526040902080547fffffffffffffffffffffffffffffff000000000000000000000000000000000016815560010180547fffffffffffffffffffffffff00000000000000000000000000000000000000001690556003805480610ae257fe5b60019003818190600052602060002001600090559055610b3d8160800151826060015167ffffffffffffffff16600060049054906101000a90046001600160a01b03166001600160a01b031661153a9092919063ffffffff16565b505050565b606080606060038054905067ffffffffffffffff81118015610b6357600080fd5b50604051908082528060200260200182016040528015610b8d578160200160208202803683370190505b5060035490915060609067ffffffffffffffff81118015610bad57600080fd5b50604051908082528060200260200182016040528015610bd7578160200160208202803683370190505b5090506000805b600354811015610d2957610bf0611a87565b6002600060038481548110610c0157fe5b60009182526020808320919091015483528281019390935260409182019020815160a081018352815460ff811615158252610100810463ffffffff9081169583019590955265010000000000810490941692810192909252690100000000000000000090920467ffffffffffffffff1660608201526001909101546001600160a01b03166080820181905290915015801590610c9b575080515b8015610cbc575080608001516001600160a01b0316336001600160a01b0316145b15610d20578060400151858481518110610cd257fe5b63ffffffff9092166020928302919091019091015260608101518451600185019486918110610cfd57fe5b602002602001019067ffffffffffffffff16908167ffffffffffffffff16815250505b50600101610bde565b509193509150509091565b600054610d5e9064010000000090046001600160a01b0316333067ffffffffffffffff86166115ba565b600080547fffffffffffffffffffffffffffffffffffffffffffffffffffffffff000000008116600163ffffffff92831681810190931691909117909255905460405183517fa011dceabc954f6714fb94a8ded740ecbe112ef1b6c2231fa34509459e363455939230929091869188916020918201918291908501908083835b60208310610dfd5780518252601f199092019160209182019101610dde565b6001836020036101000a0380198251168184511680821785525050505050509050018267ffffffffffffffff1660c01b815260080192505050604051602081830303815290604052604051808563ffffffff168152602001846001600160a01b0316815260200183815260200180602001828103825283818151815260200191508051906020019080838360005b83811015610ea3578181015183820152602001610e8b565b50505050905090810190601f168015610ed05780820380516001836020036101000a031916815260200191505b509550505050505060405180910390a15050565b600081604051602001808263ffffffff1660e01b8152600401915050604051602081830303815290604052805190602001209050919050565b6000808251601c14610f76576040805162461bcd60e51b815260206004820152601f60248201527f756e65787065637465642073697a65206f6620746865204d7367426f64792e00604482015290519081900360640190fd5b6000602084015160601c925060348401519050610f958160c01c611648565b915050915091565b6001546040805160208101929092526000828201527f020000000000000000000000000000000000000000000000000000000000000060418301527fffffffff0000000000000000000000000000000000000000000000000000000060e084901b1660428301528051602681840301815260469092019052919050565b6000606061102884516116a7565b8461103385516116a7565b8560405160200180807f6265616d2e636f6e74726163742e76616c00000000000000000000000000000081525060120185805190602001908083835b6020831061108e5780518252601f19909201916020918201910161106f565b51815160209384036101000a600019018019909216911617905287519190930192870191508083835b602083106110d65780518252601f1990920191602091820191016110b7565b51815160209384036101000a600019018019909216911617905286519190930192860191508083835b6020831061111e5780518252601f1990920191602091820191016110ff565b51815160209384036101000a600019018019909216911617905285519190930192850191508083835b602083106111665780518252601f199092019160209182019101611147565b6001836020036101000a03801982511681845116808217855250505050505090500194505050505060405160208183030381529060405290506002816040518082805190602001908083835b602083106111d15780518252601f1990920191602091820191016111b2565b51815160209384036101000a60001901801990921691161790526040519190930194509192505080830381855afa158015611210573d6000803e3d6000fd5b5050506040513d602081101561122557600080fd5b5051949350505050565b6000602182518161123c57fe5b061561128f576040805162461bcd60e51b815260206004820152601f60248201527f756e6578706563746564206c656e676874206f66207468652070726f6f662e00604482015290519081900360640190fd5b6120df8251106112d05760405162461bcd60e51b8152600401808060200182810382526024815260200180611ab66024913960400191505060405180910390fd5b50816000805b83518161ffff16101561153257806021850101519150600260f81b848261ffff168151811061130157fe5b01602001517fff0000000000000000000000000000000000000000000000000000000000000016106113645760405162461bcd60e51b8152600401808060200182810382526029815260200180611b006029913960400191505060405180910390fd5b838161ffff168151811061137457fe5b6020910101517fff00000000000000000000000000000000000000000000000000000000000000167f010000000000000000000000000000000000000000000000000000000000000014611478576002828460405160200180838152602001828152602001925050506040516020818303038152906040526040518082805190602001908083835b6020831061141b5780518252601f1990920191602091820191016113fc565b51815160209384036101000a60001901801990921691161790526040519190930194509192505080830381855afa15801561145a573d6000803e3d6000fd5b5050506040513d602081101561146f57600080fd5b5051925061152a565b6002838360405160200180838152602001828152602001925050506040516020818303038152906040526040518082805190602001908083835b602083106114d15780518252601f1990920191602091820191016114b2565b51815160209384036101000a60001901801990921691161790526040519190930194509192505080830381855afa158015611510573d6000803e3d6000fd5b5050506040513d602081101561152557600080fd5b505192505b6021016112d6565b505092915050565b604080516001600160a01b038416602482015260448082018490528251808303909101815260649091019091526020810180517bffffffffffffffffffffffffffffffffffffffffffffffffffffffff167fa9059cbb00000000000000000000000000000000000000000000000000000000179052610b3d9084906117b6565b604080516001600160a01b0380861660248301528416604482015260648082018490528251808303909101815260849091019091526020810180517bffffffffffffffffffffffffffffffffffffffffffffffffffffffff167f23b872dd000000000000000000000000000000000000000000000000000000001790526116429085906117b6565b50505050565b600881811b67ff00ff00ff00ff001666ff00ff00ff00ff9290911c9190911617601081811b67ffff0000ffff00001665ffff0000ffff9290911c9190911617602081811b6bffffffffffffffff000000001691901c63ffffffff161790565b6060805b608083106117395780836080176040516020018083805190602001908083835b602083106116ea5780518252601f1990920191602091820191016116cb565b6001836020036101000a0380198251168184511680821785525050505050509050018260ff1660f81b8152600101925050506040516020818303038152906040529050600783901c92506116ab565b80836040516020018083805190602001908083835b6020831061176d5780518252601f19909201916020918201910161174e565b6001836020036101000a0380198251168184511680821785525050505050509050018260ff1660f81b815260010192505050604051602081830303815290604052915050919050565b606061180b826040518060400160405280602081526020017f5361666545524332303a206c6f772d6c6576656c2063616c6c206661696c6564815250856001600160a01b03166118679092919063ffffffff16565b805190915015610b3d5780806020019051602081101561182a57600080fd5b5051610b3d5760405162461bcd60e51b815260040180806020018281038252602a815260200180611b4a602a913960400191505060405180910390fd5b60606118768484600085611880565b90505b9392505050565b606030318311156118c25760405162461bcd60e51b8152600401808060200182810382526026815260200180611ada6026913960400191505060405180910390fd5b6118cb856119dd565b61191c576040805162461bcd60e51b815260206004820152601d60248201527f416464726573733a2063616c6c20746f206e6f6e2d636f6e7472616374000000604482015290519081900360640190fd5b60006060866001600160a01b031685876040518082805190602001908083835b6020831061195b5780518252601f19909201916020918201910161193c565b6001836020036101000a03801982511681845116808217855250505050505090500191505060006040518083038185875af1925050503d80600081146119bd576040519150601f19603f3d011682016040523d82523d6000602084013e6119c2565b606091505b50915091506119d28282866119e3565b979650505050505050565b3b151590565b606083156119f2575081611879565b825115611a025782518084602001fd5b8160405162461bcd60e51b81526004018080602001828103825283818151815260200191508051906020019080838360005b83811015611a4c578181015183820152602001611a34565b50505050905090810190601f168015611a795780820380516001836020036101000a031916815260200191505b509250505060405180910390fd5b6040805160a0810182526000808252602082018190529181018290526060810182905260808101919091529056fe746865206c656e677468206f66207468652070726f6f6620697320746f6f206c6f6e672e416464726573733a20696e73756666696369656e742062616c616e636520666f722063616c6c4d65726b6c65506174684974656d20646972656374696f6e2073686f756c642062652030206f722031756e737570706f727465642073656e646572206f6620746865206d6573736167655361666545524332303a204552433230206f7065726174696f6e20646964206e6f742073756363656564a26469706673582212209f5e80a4bd152b0514170b62a70b68fc27e023732680f39ce7c18a2712c386bc64736f6c63430007020033",
  "immutableReferences": {},
  "source": "// SPDX-License-Identifier: MIT\r\npragma solidity ^0.7.2;\r\n\r\nimport \"openzeppelin-solidity/contracts/math/SafeMath.sol\";\r\nimport \"openzeppelin-solidity/contracts/utils/Address.sol\";\r\nimport \"openzeppelin-solidity/contracts/token/ERC20/SafeERC20.sol\";\r\nimport \"openzeppelin-solidity/contracts/token/ERC20/IERC20.sol\";\r\n\r\nimport \"./BeamHeader.sol\";\r\nimport \"./BeamUtils.sol\";\r\n\r\ncontract Pipe {\r\n    using SafeERC20 for IERC20;\r\n    // config:\r\n    // uint256 comissionPerMsg;\r\n    // uint256 stakeForRemoteMsg;\r\n    // uint64  disputePeriod;\r\n    // uint64  contenderWaitPeriod;\r\n\r\n    // incoming messages\r\n    struct RemoteMessage {\r\n        bool finalized;\r\n        // index in array m_remoteMsgsKeys\r\n        uint32 index;\r\n        // header:\r\n        uint32 msgId;\r\n        // body\r\n        uint64 amount;\r\n        address receiver;\r\n    }\r\n\r\n    uint32 m_localMsgCounter;\r\n    address m_tokenAddress;\r\n    bytes32 m_remotePipeCid;\r\n    mapping (bytes32 => RemoteMessage) m_remoteMessages;\r\n    bytes32[] m_remoteMsgsKeys;\r\n\r\n    // LocalMessage {\r\n    //     // header:\r\n    //     uint32 msgId;\r\n    //     address msgContractSender; // eth contract address\r\n    //     bytes32 msgContractReceiver; // beam contract id\r\n\r\n    //     // msg body\r\n    //     uint64 value;\r\n    //     bytes receiver; // beam pubKey - 33 bytes\r\n    // }\r\n    event NewLocalMessage(uint32 msgId, address msgContractSender, bytes32 msgContractReceiver, bytes msgBody);\r\n\r\n    constructor(address tokenAddress, bytes32 remotePipeCid)\r\n    {\r\n        m_tokenAddress = tokenAddress;\r\n        m_remotePipeCid = remotePipeCid;\r\n    }\r\n\r\n    // TODO: remove after testing\r\n    function setRemote(bytes32 remotePipeCid)\r\n        public\r\n    {\r\n        m_remotePipeCid = remotePipeCid;\r\n    }\r\n\r\n    function pushRemoteMessage(uint msgId,\r\n                               bytes32 msgContractSender,       // beam contract id\r\n                               address msgContractReceiver,     // eth contract address\r\n                               bytes memory messageBody)\r\n        public\r\n    {\r\n        bytes32 key = getRemoteMsgKey(msgId);\r\n\r\n        require(m_remoteMessages[key].receiver == address(0), \"message is exist\");\r\n        require(msgContractSender == m_remotePipeCid, \"unsupported sender of the message\");\r\n        require(msgContractReceiver == address(this), \"invalid receiver of the message\");\r\n\r\n        m_remoteMsgsKeys.push(key);\r\n\r\n        m_remoteMessages[key].index = uint32(m_remoteMsgsKeys.length - 1);\r\n        m_remoteMessages[key].msgId = uint32(msgId);\r\n        (m_remoteMessages[key].receiver, m_remoteMessages[key].amount) = parseRemoteMsgBody(messageBody);\r\n        m_remoteMessages[key].finalized = false;\r\n    }\r\n\r\n    function validateRemoteMessage(uint msgId, \r\n                                   // params of block\r\n                                   bytes32 prev,\r\n                                   bytes32 chainWork,\r\n                                   bytes32 kernels,\r\n                                   bytes32 definition,\r\n                                   uint64 height,\r\n                                   uint64 timestamp,\r\n                                   bytes memory pow,\r\n                                   bytes32 rulesHash,\r\n                                   bytes memory proof)\r\n        public\r\n    {\r\n        bytes32 key = getRemoteMsgKey(msgId);\r\n        require(!m_remoteMessages[key].finalized, \"already finalized.\");\r\n        \r\n        // validate block header & proof of msg\r\n        // TODO: uncomment when stop using FakePow\r\n        // require(BeamHeader.isValid(prev, chainWork, kernels, definition, height, timestamp, pow, rulesHash), 'invalid header.');\r\n\r\n        bytes memory variableKey = getBeamVariableKey(msgId);\r\n        bytes memory ecodedMsg = abi.encodePacked(m_remotePipeCid, address(this), m_remoteMessages[key].receiver, m_remoteMessages[key].amount);\r\n        bytes32 variableHash = BeamUtils.getContractVariableHash(variableKey, ecodedMsg);\r\n        bytes32 rootHash = BeamUtils.interpretMerkleProof(variableHash, proof);\r\n\r\n        require(rootHash == definition, \"invalid proof\");\r\n        m_remoteMessages[key].finalized = true;\r\n    }\r\n\r\n    function finalyzeRemoteMessage(uint msgId)\r\n        public\r\n    {\r\n        // TODO: dispute or time\r\n\r\n        bytes32 key = getRemoteMsgKey(msgId);\r\n        require(!m_remoteMessages[key].finalized, \"already finalized.\");\r\n        m_remoteMessages[key].finalized = true;\r\n    }\r\n\r\n    function receiveFunds(uint msgId)\r\n        public\r\n    {\r\n        bytes32 key = getRemoteMsgKey(msgId);\r\n        require(m_remoteMessages[key].finalized, \"message should be finalized\");\r\n\r\n        RemoteMessage memory tmp = m_remoteMessages[key];\r\n\r\n        // delete from keys\r\n        if (tmp.index != m_remoteMsgsKeys.length - 1) {\r\n            bytes32 lastKey = m_remoteMsgsKeys[m_remoteMsgsKeys.length - 1];\r\n            m_remoteMsgsKeys[tmp.index] = lastKey;\r\n            m_remoteMessages[lastKey].index = tmp.index;\r\n        }\r\n        delete m_remoteMessages[key];\r\n        m_remoteMsgsKeys.pop();\r\n\r\n        IERC20(m_tokenAddress).safeTransfer(tmp.receiver, tmp.amount);\r\n    }\r\n\r\n    function sendFunds(uint64 value, bytes memory receiverBeamPubkey)\r\n        public\r\n    {\r\n        IERC20(m_tokenAddress).safeTransferFrom(msg.sender, address(this), value);\r\n\r\n        emit NewLocalMessage(m_localMsgCounter++, address(this), m_remotePipeCid, abi.encodePacked(receiverBeamPubkey, value));\r\n    }\r\n\r\n    function viewIncoming()\r\n        public\r\n        view\r\n        returns (uint32[] memory, uint64[] memory)\r\n    {\r\n        uint32[] memory msgIds = new uint32[](m_remoteMsgsKeys.length);\r\n        uint64[] memory amounts = new uint64[](m_remoteMsgsKeys.length);\r\n        uint j = 0;\r\n        for (uint i = 0; i < m_remoteMsgsKeys.length; i++) {\r\n            RemoteMessage memory tmp = m_remoteMessages[m_remoteMsgsKeys[i]];\r\n\r\n            if (tmp.receiver != address(0) && tmp.finalized && msg.sender == tmp.receiver) {\r\n                msgIds[j] = tmp.msgId;\r\n                amounts[j++] = tmp.amount;\r\n            }\r\n        }\r\n\r\n        return (msgIds, amounts);\r\n    }\r\n\r\n    function getRemoteMsgKey(uint msgId)\r\n        private\r\n        pure\r\n        returns (bytes32 key)\r\n    {\r\n        key = keccak256(abi.encodePacked(uint32(msgId)));\r\n    }\r\n\r\n    function parseRemoteMsgBody(bytes memory value)\r\n        private\r\n        pure\r\n        returns (address receiver, uint64 amount)\r\n    {\r\n        require(value.length == 28, \"unexpected size of the MsgBody.\");\r\n        // parse msg: [address][uint64 value]\r\n        bytes8 tmp;\r\n        assembly {\r\n            receiver := shr(96, mload(add(value, 32)))\r\n            tmp := mload(add(value, 52))\r\n        }\r\n        amount = BeamUtils.reverse64(uint64(tmp));\r\n    }\r\n\r\n    function getBeamVariableKey(uint msgId)\r\n        private\r\n        view\r\n        returns (bytes memory)\r\n    {\r\n        // [contract_id,KeyTag::Internal(uint8 0),KeyType::OutCheckpoint(uint8 2),index_BE(uint32 'packageId')]\r\n        return abi.encodePacked(m_remotePipeCid, uint8(0), uint8(2), uint32(msgId));\r\n    }   \r\n}",
  "sourcePath": "d:\\work\\bridge\\beam-bridge-ethpipe\\contracts\\Pipe.sol",
  "compiler": {
    "name": "solc",
    "version": "0.7.2+commit.51b20bc0.Emscripten.clang"
  },
  "schemaVersion": "3.4.2",
  "updatedAt": "2021-09-03T10:23:07.269Z",
  "devdoc": {
    "kind": "dev",
    "methods": {},
    "version": 1
  },
  "userdoc": {
    "kind": "user",
    "methods": {},
    "version": 1
  }
}