{
  "contractName": "Pipe",
  "abi": [
    {
      "anonymous": false,
      "inputs": [
        {
          "indexed": false,
          "internalType": "uint64",
          "name": "pckgId",
          "type": "uint64"
        },
        {
          "indexed": false,
          "internalType": "address",
          "name": "msgContractSender",
          "type": "address"
        },
        {
          "indexed": false,
          "internalType": "bytes32",
          "name": "msgContractReceiver",
          "type": "bytes32"
        },
        {
          "indexed": false,
          "internalType": "bytes",
          "name": "msgBody",
          "type": "bytes"
        }
      ],
      "name": "NewLocalMessage",
      "type": "event"
    },
    {
      "inputs": [
        {
          "internalType": "bytes32",
          "name": "remoteContractId",
          "type": "bytes32"
        }
      ],
      "name": "setRemote",
      "outputs": [],
      "stateMutability": "nonpayable",
      "type": "function"
    },
    {
      "inputs": [
        {
          "internalType": "uint256",
          "name": "packageId",
          "type": "uint256"
        },
        {
          "internalType": "uint256",
          "name": "msgId",
          "type": "uint256"
        },
        {
          "internalType": "bytes32",
          "name": "msgSender",
          "type": "bytes32"
        },
        {
          "internalType": "bytes32",
          "name": "msgReceiver",
          "type": "bytes32"
        },
        {
          "internalType": "bytes",
          "name": "messageBody",
          "type": "bytes"
        }
      ],
      "name": "pushRemoteMessage",
      "outputs": [],
      "stateMutability": "nonpayable",
      "type": "function"
    },
    {
      "inputs": [
        {
          "internalType": "uint256",
          "name": "packageId",
          "type": "uint256"
        },
        {
          "internalType": "uint256",
          "name": "msgId",
          "type": "uint256"
        },
        {
          "internalType": "bytes32",
          "name": "prev",
          "type": "bytes32"
        },
        {
          "internalType": "bytes32",
          "name": "chainWork",
          "type": "bytes32"
        },
        {
          "internalType": "bytes32",
          "name": "kernels",
          "type": "bytes32"
        },
        {
          "internalType": "bytes32",
          "name": "definition",
          "type": "bytes32"
        },
        {
          "internalType": "uint64",
          "name": "height",
          "type": "uint64"
        },
        {
          "internalType": "uint64",
          "name": "timestamp",
          "type": "uint64"
        },
        {
          "internalType": "bytes",
          "name": "pow",
          "type": "bytes"
        },
        {
          "internalType": "bytes32",
          "name": "rulesHash",
          "type": "bytes32"
        },
        {
          "internalType": "bytes",
          "name": "proof",
          "type": "bytes"
        }
      ],
      "name": "validateRemoteMessage",
      "outputs": [],
      "stateMutability": "nonpayable",
      "type": "function"
    },
    {
      "inputs": [
        {
          "internalType": "uint256",
          "name": "packageId",
          "type": "uint256"
        },
        {
          "internalType": "uint256",
          "name": "msgId",
          "type": "uint256"
        }
      ],
      "name": "getRemoteMessage",
      "outputs": [
        {
          "internalType": "bytes",
          "name": "",
          "type": "bytes"
        }
      ],
      "stateMutability": "nonpayable",
      "type": "function"
    },
    {
      "inputs": [
        {
          "internalType": "bytes32",
          "name": "contractReceiver",
          "type": "bytes32"
        },
        {
          "internalType": "bytes",
          "name": "msgBody",
          "type": "bytes"
        }
      ],
      "name": "pushLocalMessage",
      "outputs": [],
      "stateMutability": "nonpayable",
      "type": "function"
    }
  ],
  "bytecode": "0x608060405234801561001057600080fd5b50611347806100206000396000f3fe608060405234801561001057600080fd5b50600436106100675760003560e01c80631ff10275116100505780631ff1027514610149578063a95b3fca146102bf578063eb52933a1461035757610067565b8063158df4191461006c5780631af7da8c1461008b575b600080fd5b6100896004803603602081101561008257600080fd5b5035610404565b005b610089600480360360a08110156100a157600080fd5b81359160208101359160408201359160608101359181019060a0810160808201356401000000008111156100d457600080fd5b8201836020820111156100e657600080fd5b8035906020019184600183028401116401000000008311171561010857600080fd5b91908080601f016020809104026020016040519081016040528093929190818152602001838380828437600092019190915250929550610409945050505050565b610089600480360361016081101561016057600080fd5b81359160208101359160408201359160608101359160808201359160a08101359167ffffffffffffffff60c083013581169260e08101359091169181019061012081016101008201356401000000008111156101bb57600080fd5b8201836020820111156101cd57600080fd5b803590602001918460018302840111640100000000831117156101ef57600080fd5b91908080601f0160208091040260200160405190810160405280939291908181526020018383808284376000920191909152509295843595909490935060408101925060200135905064010000000081111561024a57600080fd5b82018360208201111561025c57600080fd5b8035906020019184600183028401116401000000008311171561027e57600080fd5b91908080601f016020809104026020016040519081016040528093929190818152602001838380828437600092019190915250929550610506945050505050565b6102e2600480360360408110156102d557600080fd5b508035906020013561074a565b6040805160208082528351818301528351919283929083019185019080838360005b8381101561031c578181015183820152602001610304565b50505050905090810190601f1680156103495780820380516001836020036101000a031916815260200191505b509250505060405180910390f35b6100896004803603604081101561036d57600080fd5b8135919081019060408101602082013564010000000081111561038f57600080fd5b8201836020820111156103a157600080fd5b803590602001918460018302840111640100000000831117156103c357600080fd5b91908080601f01602080910402602001604051908101604052809392919081815260200183838082843760009201919091525092955061090e945050505050565b600055565b604080516020808201889052818301879052825180830384018152606090920183528151918101919091206000818152600192839052929092206004015460029181161561010002600019011604156104a9576040805162461bcd60e51b815260206004820152601060248201527f6d65737361676520697320657869737400000000000000000000000000000000604482015290519081900360640190fd5b6000818152600160208181526040909220888155908101879055600281018590556003810186905583516104e5926004909201918501906111df565b506000908152600160205260409020600501805460ff191690555050505050565b6040805160208082018e90528183018d905282518083038401815260609092018352815191810191909120600081815260019092529190206005015460ff1615610597576040805162461bcd60e51b815260206004820152601160248201527f616c72656164792076657269666965642e000000000000000000000000000000604482015290519081900360640190fd5b6000818152600160208181526040808420815160c081018352815481528185015481850152600280830154828501526003830154606083015260048301805485519781161561010002600019011691909104601f810186900486028701860190945283865261067c9587959294608086019391929183018282801561065d5780601f106106325761010080835404028352916020019161065d565b820191906000526020600020905b81548152906001019060200180831161064057829003601f168201915b50505091835250506005919091015460ff161515602090910152610a09565b905060606106898e610baa565b905060006106b6828460405160200180828152602001915050604051602081830303815290604052610c28565b905060006106c48287610e3d565b90508a811461071a576040805162461bcd60e51b815260206004820152600d60248201527f696e76616c69642070726f6f6600000000000000000000000000000000000000604482015290519081900360640190fd5b505050600091825250600160208190526040909120600501805460ff191690911790555050505050505050505050565b60408051602080820185905281830184905282518083038401815260609283018452805190820120600081815260019092529290206005015490919060ff166107da576040805162461bcd60e51b815260206004820152601b60248201527f6d6573736167652073686f756c642062652076616c6964617465640000000000604482015290519081900360640190fd5b6107e261125d565b600082815260016020818152604092839020835160c081018552815481528184015481840152600280830154828701526003830154606083015260048301805487519681161561010002600019011691909104601f81018590048502860185019096528585529094919360808601939092908301828280156108a55780601f1061087a576101008083540402835291602001916108a5565b820191906000526020600020905b81548152906001019060200180831161088857829003601f168201915b50505091835250506005919091015460ff1615156020918201526000848152600191829052604081208181559182018190556002820181905560038201819055919250906108f66004830182611291565b50600501805460ff1916905560800151949350505050565b600280547fffffffffffffffffffffffffffffffffffffffffffffffff00000000000000008116600167ffffffffffffffff928316908101909216179091556040805182815233602080830182905292820186905260806060830181815286519184019190915285517ffe876a01f1c341615141259c78aeeef118eccef1def8dfe5cc65481d99df704e9594929388938893919260a084019185019080838360005b838110156109c85781810151838201526020016109b0565b50505050905090810190601f1680156109f55780820380516001836020036101000a031916815260200191505b509550505050505060405180910390a15050565b6080810151516000906002908490610a23906040016110d0565b84606001518560400151866080015160405160200180807f622e6d736700000000000000000000000000000000000000000000000000000081525060060186815260200185805190602001908083835b60208310610a925780518252601f199092019160209182019101610a73565b51815160209384036101000a600019018019909216911617905292018681528083018690528451604090910192850191508083835b60208310610ae65780518252601f199092019160209182019101610ac7565b6001836020036101000a038019825116818451168082178552505050505050905001955050505050506040516020818303038152906040526040518082805190602001908083835b60208310610b4d5780518252601f199092019160209182019101610b2e565b51815160209384036101000a60001901801990921691161790526040519190930194509192505080830381855afa158015610b8c573d6000803e3d6000fd5b5050506040513d6020811015610ba157600080fd5b50519392505050565b60008054604080516020810192909252818101929092527f0200000000000000000000000000000000000000000000000000000000000000604182015260e09290921b7fffffffff00000000000000000000000000000000000000000000000000000000166042830152805180830360260181526046909201905290565b60006060610c3684516110d0565b84610c4185516110d0565b8560405160200180807f6265616d2e636f6e74726163742e76616c00000000000000000000000000000081525060120185805190602001908083835b60208310610c9c5780518252601f199092019160209182019101610c7d565b51815160209384036101000a600019018019909216911617905287519190930192870191508083835b60208310610ce45780518252601f199092019160209182019101610cc5565b51815160209384036101000a600019018019909216911617905286519190930192860191508083835b60208310610d2c5780518252601f199092019160209182019101610d0d565b51815160209384036101000a600019018019909216911617905285519190930192850191508083835b60208310610d745780518252601f199092019160209182019101610d55565b6001836020036101000a03801982511681845116808217855250505050505090500194505050505060405160208183030381529060405290506002816040518082805190602001908083835b60208310610ddf5780518252601f199092019160209182019101610dc0565b51815160209384036101000a60001901801990921691161790526040519190930194509192505080830381855afa158015610e1e573d6000803e3d6000fd5b5050506040513d6020811015610e3357600080fd5b5051949350505050565b60006021825181610e4a57fe5b0615610e9d576040805162461bcd60e51b815260206004820152601f60248201527f756e6578706563746564206c656e676874206f66207468652070726f6f662e00604482015290519081900360640190fd5b6120df825110610ede5760405162461bcd60e51b81526004018080602001828103825260248152602001806112ee6024913960400191505060405180910390fd5b50816000805b83518161ffff1610156110c857806021850101519150838161ffff1681518110610f0a57fe5b6020910101517fff00000000000000000000000000000000000000000000000000000000000000167f01000000000000000000000000000000000000000000000000000000000000001461100e576002828460405160200180838152602001828152602001925050506040516020818303038152906040526040518082805190602001908083835b60208310610fb15780518252601f199092019160209182019101610f92565b51815160209384036101000a60001901801990921691161790526040519190930194509192505080830381855afa158015610ff0573d6000803e3d6000fd5b5050506040513d602081101561100557600080fd5b505192506110c0565b6002838360405160200180838152602001828152602001925050506040516020818303038152906040526040518082805190602001908083835b602083106110675780518252601f199092019160209182019101611048565b51815160209384036101000a60001901801990921691161790526040519190930194509192505080830381855afa1580156110a6573d6000803e3d6000fd5b5050506040513d60208110156110bb57600080fd5b505192505b602101610ee4565b505092915050565b6060805b608083106111625780836080176040516020018083805190602001908083835b602083106111135780518252601f1990920191602091820191016110f4565b6001836020036101000a0380198251168184511680821785525050505050509050018260ff1660f81b8152600101925050506040516020818303038152906040529050600783901c92506110d4565b80836040516020018083805190602001908083835b602083106111965780518252601f199092019160209182019101611177565b6001836020036101000a0380198251168184511680821785525050505050509050018260ff1660f81b815260010192505050604051602081830303815290604052915050919050565b828054600181600116156101000203166002900490600052602060002090601f016020900481019282601f1061122057805160ff191683800117855561124d565b8280016001018555821561124d579182015b8281111561124d578251825591602001919060010190611232565b506112599291506112d8565b5090565b6040805160c0810182526000808252602082018190529181018290526060808201839052608082015260a081019190915290565b50805460018160011615610100020316600290046000825580601f106112b757506112d5565b601f0160209004906000526020600020908101906112d591906112d8565b50565b5b8082111561125957600081556001016112d956fe746865206c656e677468206f66207468652070726f6f6620697320746f6f206c6f6e672ea2646970667358221220f6605bcfea78bbcc2ddc68dc8edc06ca18b993baa29c581809c1ee609a737d4c64736f6c63430007020033",
  "immutableReferences": {},
  "source": "// SPDX-License-Identifier: MIT\r\npragma solidity ^0.7.2;\r\n\r\nimport \"./BeamHeader.sol\";\r\nimport \"./BeamUtils.sol\";\r\n\r\ncontract Pipe {\r\n    // config:\r\n    // remote cfg:\r\n    // uint32 packageMaxMsgs;\r\n    // uint64 packageMaxDiffHeightToClose;\r\n    // local cfg:\r\n    // bytes32 rulesRemote; // ?\r\n    // uint256 comissionPerMsg;\r\n    // uint256 stakeForRemoteMsg;\r\n    // uint64  disputePeriod;\r\n    // uint64  contenderWaitPeriod;\r\n\r\n    // incoming messages\r\n    struct RemoteMessage {\r\n        // header:\r\n        uint packageId;\r\n        uint msgId;\r\n        // eth contract address\r\n        // TODO: should be changed when Beam side will be ready \r\n        // address msgReceiver;\r\n        bytes32 msgReceiver;\r\n        // beam contract id\r\n        bytes32 msgSender;\r\n\r\n        // body\r\n        bytes value;\r\n        bool validated;\r\n    }\r\n\r\n    bytes32 m_remotePipeId;\r\n    mapping (bytes32 => RemoteMessage) m_remoteMessages;\r\n    uint64 m_localPckgCounter;\r\n\r\n    // LocalMessage {\r\n    //     // header:\r\n    //     uint64 pckgId;\r\n    //     address msgContractSender; // eth contract address\r\n    //     bytes32 msgContractReceiver; // beam contract id\r\n\r\n    //     // msg body\r\n    //     uint64 value;\r\n    //     bytes receiver; // beam pubKey - 33 bytes\r\n    // }\r\n    event NewLocalMessage(uint64 pckgId, address msgContractSender, bytes32 msgContractReceiver, bytes msgBody);\r\n\r\n    function setRemote(bytes32 remoteContractId)\r\n        public\r\n    {\r\n        m_remotePipeId = remoteContractId;\r\n    }\r\n\r\n    // TODO: add support multiple msgs\r\n    function pushRemoteMessage(uint packageId,\r\n                               uint msgId,\r\n                               bytes32 msgSender,       // beam contract id\r\n                               bytes32 msgReceiver,     // eth contract address\r\n                               bytes memory messageBody)\r\n        public\r\n    {\r\n        bytes32 key = keccak256(abi.encodePacked(packageId, msgId));\r\n\r\n        require(m_remoteMessages[key].value.length == 0, \"message is exist\");\r\n\r\n        m_remoteMessages[key].packageId = packageId;\r\n        m_remoteMessages[key].msgId = msgId;\r\n        m_remoteMessages[key].msgReceiver = msgReceiver;\r\n        m_remoteMessages[key].msgSender = msgSender;\r\n        m_remoteMessages[key].value = messageBody;\r\n        m_remoteMessages[key].validated = false;\r\n    }\r\n\r\n    function getPackageKey(uint packageId)\r\n        private\r\n        view\r\n        returns (bytes memory)\r\n    {\r\n        // [contract_id,KeyTag::Internal(uint8 0),KeyType::OutCheckpoint(uint8 2),index_BE(uint32 'packageId')]\r\n        return abi.encodePacked(m_remotePipeId, uint8(0), uint8(2), uint32(packageId));\r\n    }\r\n\r\n    function getMsgHash(bytes32 previousHash, RemoteMessage memory message)\r\n        private\r\n        pure\r\n        returns (bytes32)\r\n    {\r\n        return sha256(abi.encodePacked(\"b.msg\\x00\",\r\n                      previousHash,\r\n                      // full msg size\r\n                      BeamUtils.encodeUint(message.msgReceiver.length + message.msgSender.length + message.value.length),\r\n                      // msgHdr: sender/receiver\r\n                      message.msgSender,\r\n                      message.msgReceiver,\r\n                      // msg body\r\n                      message.value));\r\n    }\r\n\r\n    function validateRemoteMessage(uint packageId,\r\n                                   uint msgId, \r\n                                   // params of block\r\n                                   bytes32 prev,\r\n                                   bytes32 chainWork,\r\n                                   bytes32 kernels,\r\n                                   bytes32 definition,\r\n                                   uint64 height,\r\n                                   uint64 timestamp,\r\n                                   bytes memory pow,\r\n                                   bytes32 rulesHash,\r\n                                   bytes memory proof)\r\n        public\r\n    {\r\n        bytes32 key = keccak256(abi.encodePacked(packageId, msgId));\r\n        require(!m_remoteMessages[key].validated, \"already verified.\");\r\n        \r\n        // validate block header & proof of msg\r\n        // TODO: uncomment when stop using FakePow\r\n        // require(BeamHeader.isValid(prev, chainWork, kernels, definition, height, timestamp, pow, rulesHash), 'invalid header.');\r\n\r\n        bytes32 packageValue = getMsgHash(0, m_remoteMessages[key]);\r\n        bytes memory variableKey = getPackageKey(packageId);\r\n\r\n        bytes32 variableHash = BeamUtils.getContractVariableHash(variableKey, abi.encodePacked(packageValue));\r\n        bytes32 rootHash = BeamUtils.interpretMerkleProof(variableHash, proof);\r\n\r\n        require(rootHash == definition, \"invalid proof\");\r\n\r\n        m_remoteMessages[key].validated = true;\r\n    }\r\n\r\n    function getRemoteMessage(uint packageId, uint msgId)\r\n        public\r\n        returns (bytes memory)\r\n    {\r\n        bytes32 key = keccak256(abi.encodePacked(packageId, msgId));\r\n        require(m_remoteMessages[key].validated, \"message should be validated\");\r\n\r\n        RemoteMessage memory tmp = m_remoteMessages[key];\r\n\r\n        delete m_remoteMessages[key];\r\n\r\n        return tmp.value;\r\n    }\r\n\r\n    function pushLocalMessage(bytes32 contractReceiver, bytes memory msgBody)\r\n        public\r\n    {\r\n        // TODO: msgId\r\n        emit NewLocalMessage(m_localPckgCounter++, msg.sender, contractReceiver, msgBody);\r\n    }\r\n}",
  "sourcePath": "d:/work/eth_pipe/contracts/Pipe.sol",
  "compiler": {
    "name": "solc",
    "version": "0.7.2+commit.51b20bc0.Emscripten.clang"
  },
  "schemaVersion": "3.4.1",
  "updatedAt": "2021-07-05T14:14:48.748Z",
  "devdoc": {
    "kind": "dev",
    "methods": {},
    "version": 1
  },
  "userdoc": {
    "kind": "user",
    "methods": {},
    "version": 1
  }
}