{
  "contractName": "PipeUser",
  "abi": [
    {
      "inputs": [
        {
          "internalType": "address",
          "name": "pipeAddress",
          "type": "address"
        },
        {
          "internalType": "address",
          "name": "beamToken",
          "type": "address"
        },
        {
          "internalType": "bytes32",
          "name": "beamPipeUserCid",
          "type": "bytes32"
        }
      ],
      "stateMutability": "nonpayable",
      "type": "constructor"
    },
    {
      "inputs": [
        {
          "internalType": "uint256",
          "name": "msgId",
          "type": "uint256"
        }
      ],
      "name": "receiveFunds",
      "outputs": [],
      "stateMutability": "nonpayable",
      "type": "function"
    },
    {
      "inputs": [
        {
          "internalType": "uint64",
          "name": "value",
          "type": "uint64"
        },
        {
          "internalType": "bytes",
          "name": "receiverBeamPubkey",
          "type": "bytes"
        }
      ],
      "name": "sendFunds",
      "outputs": [],
      "stateMutability": "nonpayable",
      "type": "function"
    }
  ],
  "bytecode": "0x608060405234801561001057600080fd5b506040516109ed3803806109ed8339818101604052606081101561003357600080fd5b5080516020820151604090920151600080546001600160a01b039384166001600160a01b031991821617909155600180549390941692169190911790915560025561096a806100836000396000f3fe608060405234801561001057600080fd5b50600436106100365760003560e01c80638827e09b1461003b5780639653d0dc1461005a575b600080fd5b6100586004803603602081101561005157600080fd5b5035610111565b005b6100586004803603604081101561007057600080fd5b67ffffffffffffffff823516919081019060408101602082013564010000000081111561009c57600080fd5b8201836020820111156100ae57600080fd5b803590602001918460018302840111640100000000831117156100d057600080fd5b91908080601f0160208091040260200160405190810160405280939291908181526020018383808284376000920191909152509295506102c8945050505050565b60008054604080517f66a0683700000000000000000000000000000000000000000000000000000000815260048101859052905160609373ffffffffffffffffffffffffffffffffffffffff909316926366a06837926024808201939182900301818387803b15801561018357600080fd5b505af1158015610197573d6000803e3d6000fd5b505050506040513d6000823e601f3d908101601f1916820160405260208110156101c057600080fd5b81019080805160405193929190846401000000008211156101e057600080fd5b9083019060208201858111156101f557600080fd5b825164010000000081118282018810171561020f57600080fd5b82525081516020918201929091019080838360005b8381101561023c578181015183820152602001610224565b50505050905090810190601f1680156102695780820380516001836020036101000a031916815260200191505b506040525050506020810151603482015191925060601c90600061029060c083901c61046d565b6001549091506102c19073ffffffffffffffffffffffffffffffffffffffff168467ffffffffffffffff84166104cc565b5050505050565b6001546102f79073ffffffffffffffffffffffffffffffffffffffff16333067ffffffffffffffff861661055e565b60008054906101000a900473ffffffffffffffffffffffffffffffffffffffff1673ffffffffffffffffffffffffffffffffffffffff1663eb52933a60025483856040516020018083805190602001908083835b6020831061036a5780518252601f19909201916020918201910161034b565b6001836020036101000a0380198251168184511680821785525050505050509050018267ffffffffffffffff1660c01b8152600801925050506040516020818303038152906040526040518363ffffffff1660e01b81526004018083815260200180602001828103825283818151815260200191508051906020019080838360005b838110156104045781810151838201526020016103ec565b50505050905090810190601f1680156104315780820380516001836020036101000a031916815260200191505b509350505050600060405180830381600087803b15801561045157600080fd5b505af1158015610465573d6000803e3d6000fd5b505050505050565b600881811b67ff00ff00ff00ff001666ff00ff00ff00ff9290911c9190911617601081811b67ffff0000ffff00001665ffff0000ffff9290911c9190911617602081811b6bffffffffffffffff000000001691901c63ffffffff161790565b6040805173ffffffffffffffffffffffffffffffffffffffff8416602482015260448082018490528251808303909101815260649091019091526020810180517bffffffffffffffffffffffffffffffffffffffffffffffffffffffff167fa9059cbb000000000000000000000000000000000000000000000000000000001790526105599084906105f9565b505050565b6040805173ffffffffffffffffffffffffffffffffffffffff80861660248301528416604482015260648082018490528251808303909101815260849091019091526020810180517bffffffffffffffffffffffffffffffffffffffffffffffffffffffff167f23b872dd000000000000000000000000000000000000000000000000000000001790526105f39085906105f9565b50505050565b606061065b826040518060400160405280602081526020017f5361666545524332303a206c6f772d6c6576656c2063616c6c206661696c65648152508573ffffffffffffffffffffffffffffffffffffffff166106b79092919063ffffffff16565b8051909150156105595780806020019051602081101561067a57600080fd5b50516105595760405162461bcd60e51b815260040180806020018281038252602a81526020018061090b602a913960400191505060405180910390fd5b60606106c684846000856106d0565b90505b9392505050565b606030318311156107125760405162461bcd60e51b81526004018080602001828103825260268152602001806108e56026913960400191505060405180910390fd5b61071b8561083a565b61076c576040805162461bcd60e51b815260206004820152601d60248201527f416464726573733a2063616c6c20746f206e6f6e2d636f6e7472616374000000604482015290519081900360640190fd5b600060608673ffffffffffffffffffffffffffffffffffffffff1685876040518082805190602001908083835b602083106107b85780518252601f199092019160209182019101610799565b6001836020036101000a03801982511681845116808217855250505050505090500191505060006040518083038185875af1925050503d806000811461081a576040519150601f19603f3d011682016040523d82523d6000602084013e61081f565b606091505b509150915061082f828286610840565b979650505050505050565b3b151590565b6060831561084f5750816106c9565b82511561085f5782518084602001fd5b8160405162461bcd60e51b81526004018080602001828103825283818151815260200191508051906020019080838360005b838110156108a9578181015183820152602001610891565b50505050905090810190601f1680156108d65780820380516001836020036101000a031916815260200191505b509250505060405180910390fdfe416464726573733a20696e73756666696369656e742062616c616e636520666f722063616c6c5361666545524332303a204552433230206f7065726174696f6e20646964206e6f742073756363656564a2646970667358221220001e44f70ba6889a670a971ce46498823b1fe7c2c5a9b93fef4e9dcad06bfda564736f6c63430007020033",
  "immutableReferences": {},
  "source": "// SPDX-License-Identifier: MIT\r\npragma solidity ^0.7.2;\r\n\r\nimport \"./Pipe.sol\";\r\nimport \"openzeppelin-solidity/contracts/math/SafeMath.sol\";\r\nimport \"openzeppelin-solidity/contracts/utils/Address.sol\";\r\nimport \"openzeppelin-solidity/contracts/token/ERC20/SafeERC20.sol\";\r\nimport \"openzeppelin-solidity/contracts/token/ERC20/IERC20.sol\";\r\n\r\ncontract PipeUser {\r\n    using SafeERC20 for IERC20;\r\n    address m_pipeAddress;\r\n    address m_beamToken;\r\n    bytes32 m_beamPipeUserCid;\r\n\r\n    constructor(address pipeAddress, address beamToken, bytes32 beamPipeUserCid)\r\n    {\r\n        m_pipeAddress = pipeAddress;\r\n        m_beamToken = beamToken;\r\n        m_beamPipeUserCid = beamPipeUserCid;\r\n    }\r\n\r\n    function receiveFunds(uint msgId)\r\n        public\r\n    {\r\n        bytes memory value = Pipe(m_pipeAddress).getRemoteMessage(msgId);\r\n\r\n        // parse msg: [address][uint64 value]\r\n        address receiver;\r\n        bytes8 tmp;\r\n        assembly {\r\n            receiver := shr(96, mload(add(value, 32)))\r\n            tmp := mload(add(value, 52))\r\n        }\r\n        uint64 amount = BeamUtils.reverse64(uint64(tmp));\r\n\r\n        IERC20(m_beamToken).safeTransfer(receiver, amount);\r\n    }\r\n\r\n    function sendFunds(uint64 value, bytes memory receiverBeamPubkey)\r\n        public\r\n    {\r\n        IERC20(m_beamToken).safeTransferFrom(msg.sender, address(this), value);\r\n\r\n        Pipe(m_pipeAddress).pushLocalMessage(m_beamPipeUserCid, abi.encodePacked(receiverBeamPubkey, value));\r\n    }\r\n}",
  "sourcePath": "d:/work/eth_pipe/contracts/PipeUser.sol",
  "compiler": {
    "name": "solc",
    "version": "0.7.2+commit.51b20bc0.Emscripten.clang"
  },
  "schemaVersion": "3.4.1",
  "updatedAt": "2021-07-07T18:05:20.563Z",
  "devdoc": {
    "kind": "dev",
    "methods": {},
    "version": 1
  },
  "userdoc": {
    "kind": "user",
    "methods": {},
    "version": 1
  }
}