{
  "contractName": "Pipe",
  "abi": [
    {
      "anonymous": false,
      "inputs": [
        {
          "indexed": false,
          "internalType": "uint32",
          "name": "msgId",
          "type": "uint32"
        },
        {
          "indexed": false,
          "internalType": "address",
          "name": "msgContractSender",
          "type": "address"
        },
        {
          "indexed": false,
          "internalType": "bytes32",
          "name": "msgContractReceiver",
          "type": "bytes32"
        },
        {
          "indexed": false,
          "internalType": "bytes",
          "name": "msgBody",
          "type": "bytes"
        }
      ],
      "name": "NewLocalMessage",
      "type": "event"
    },
    {
      "inputs": [
        {
          "internalType": "bytes32",
          "name": "remoteContractId",
          "type": "bytes32"
        }
      ],
      "name": "setRemote",
      "outputs": [],
      "stateMutability": "nonpayable",
      "type": "function"
    },
    {
      "inputs": [
        {
          "internalType": "uint256",
          "name": "msgId",
          "type": "uint256"
        },
        {
          "internalType": "bytes32",
          "name": "msgContractSender",
          "type": "bytes32"
        },
        {
          "internalType": "address",
          "name": "msgContractReceiver",
          "type": "address"
        },
        {
          "internalType": "bytes",
          "name": "messageBody",
          "type": "bytes"
        }
      ],
      "name": "pushRemoteMessage",
      "outputs": [],
      "stateMutability": "nonpayable",
      "type": "function"
    },
    {
      "inputs": [
        {
          "internalType": "uint256",
          "name": "msgId",
          "type": "uint256"
        },
        {
          "internalType": "bytes32",
          "name": "prev",
          "type": "bytes32"
        },
        {
          "internalType": "bytes32",
          "name": "chainWork",
          "type": "bytes32"
        },
        {
          "internalType": "bytes32",
          "name": "kernels",
          "type": "bytes32"
        },
        {
          "internalType": "bytes32",
          "name": "definition",
          "type": "bytes32"
        },
        {
          "internalType": "uint64",
          "name": "height",
          "type": "uint64"
        },
        {
          "internalType": "uint64",
          "name": "timestamp",
          "type": "uint64"
        },
        {
          "internalType": "bytes",
          "name": "pow",
          "type": "bytes"
        },
        {
          "internalType": "bytes32",
          "name": "rulesHash",
          "type": "bytes32"
        },
        {
          "internalType": "bytes",
          "name": "proof",
          "type": "bytes"
        }
      ],
      "name": "validateRemoteMessage",
      "outputs": [],
      "stateMutability": "nonpayable",
      "type": "function"
    },
    {
      "inputs": [
        {
          "internalType": "uint256",
          "name": "msgId",
          "type": "uint256"
        }
      ],
      "name": "getRemoteMessage",
      "outputs": [
        {
          "internalType": "bytes",
          "name": "",
          "type": "bytes"
        }
      ],
      "stateMutability": "nonpayable",
      "type": "function"
    },
    {
      "inputs": [
        {
          "internalType": "bytes32",
          "name": "contractReceiver",
          "type": "bytes32"
        },
        {
          "internalType": "bytes",
          "name": "msgBody",
          "type": "bytes"
        }
      ],
      "name": "pushLocalMessage",
      "outputs": [],
      "stateMutability": "nonpayable",
      "type": "function"
    }
  ],
  "bytecode": "0x608060405234801561001057600080fd5b506111ce806100206000396000f3fe608060405234801561001057600080fd5b50600436106100675760003560e01c806376fc6ba91161005057806376fc6ba91461011d5780637de00d3a146101ec578063eb52933a1461035c57610067565b8063158df4191461006c57806366a068371461008b575b600080fd5b6100896004803603602081101561008257600080fd5b5035610409565b005b6100a8600480360360208110156100a157600080fd5b503561040e565b6040805160208082528351818301528351919283929083019185019080838360005b838110156100e25781810151838201526020016100ca565b50505050905090810190601f16801561010f5780820380516001836020036101000a031916815260200191505b509250505060405180910390f35b6100896004803603608081101561013357600080fd5b81359160208101359173ffffffffffffffffffffffffffffffffffffffff604083013516919081019060808101606082013564010000000081111561017757600080fd5b82018360208201111561018957600080fd5b803590602001918460018302840111640100000000831117156101ab57600080fd5b91908080601f0160208091040260200160405190810160405280939291908181526020018383808284376000920191909152509295506105e5945050505050565b610089600480360361014081101561020357600080fd5b81359160208101359160408201359160608101359160808201359167ffffffffffffffff60a082013581169260c08301359091169190810190610100810160e082013564010000000081111561025857600080fd5b82018360208201111561026a57600080fd5b8035906020019184600183028401116401000000008311171561028c57600080fd5b91908080601f016020809104026020016040519081016040528093929190818152602001838380828437600092019190915250929584359590949093506040810192506020013590506401000000008111156102e757600080fd5b8201836020820111156102f957600080fd5b8035906020019184600183028401116401000000008311171561031b57600080fd5b91908080601f016020809104026020016040519081016040528093929190818152602001838380828437600092019190915250929550610710945050505050565b6100896004803603604081101561037257600080fd5b8135919081019060408101602082013564010000000081111561039457600080fd5b8201836020820111156103a657600080fd5b803590602001918460018302840111640100000000831117156103c857600080fd5b91908080601f016020809104026020016040519081016040528093929190818152602001838380828437600092019190915250929550610923945050505050565b600055565b6060600061041b836109ff565b60008181526001602052604090206003015490915060ff16610484576040805162461bcd60e51b815260206004820152601b60248201527f6d6573736167652073686f756c642062652076616c6964617465640000000000604482015290519081900360640190fd5b61048c61106d565b600082815260016020818152604092839020835160a081018552815463ffffffff81168252640100000000900473ffffffffffffffffffffffffffffffffffffffff168184015281840154818601526002808301805487516101009782161597909702600019011691909104601f81018590048502860185019096528585529094919360608601939092908301828280156105685780601f1061053d57610100808354040283529160200191610568565b820191906000526020600020905b81548152906001019060200180831161054b57829003601f168201915b50505091835250506003919091015460ff16151560209182015260008481526001918290526040812080547fffffffffffffffff000000000000000000000000000000000000000000000000168155918201819055919250906105ce600283018261109a565b50600301805460ff19169055606001519392505050565b60006105f0856109ff565b905060016000828152602001908152602001600020600201805460018160011615610100020316600290049050600014610671576040805162461bcd60e51b815260206004820152601060248201527f6d65737361676520697320657869737400000000000000000000000000000000604482015290519081900360640190fd5b6000818152600160208181526040909220805463ffffffff191663ffffffff8916177fffffffffffffffff0000000000000000000000000000000000000000ffffffff1664010000000073ffffffffffffffffffffffffffffffffffffffff88160217815590810186905583516106f0926002909201918501906110e1565b506000908152600160205260409020600301805460ff1916905550505050565b600061071b8b6109ff565b60008181526001602052604090206003015490915060ff1615610785576040805162461bcd60e51b815260206004820152601160248201527f616c72656164792076657269666965642e000000000000000000000000000000604482015290519081900360640190fd5b60606107908c610a38565b60008381526001602081815260409283902080830154815485519384018281527fffffffffffffffffffffffffffffffffffffffff000000000000000000000000640100000000909204606081811b9390931697860197909752600293840180549899509197929673ffffffffffffffffffffffffffffffffffffffff16959194909360549091019285926000199082161561010002011604801561086c5780601f1061084a57610100808354040283529182019161086c565b820191906000526020600020905b815481529060010190602001808311610858575b50509350505050604051602081830303815290604052905060006108908383610ab6565b9050600061089e8287610ccb565b90508a81146108f4576040805162461bcd60e51b815260206004820152600d60248201527f696e76616c69642070726f6f6600000000000000000000000000000000000000604482015290519081900360640190fd5b505050600091825250600160208190526040909120600301805460ff1916909117905550505050505050505050565b6002805463ffffffff198116600163ffffffff928316908101909216179091556040805182815233602080830182905292820186905260806060830181815286519184019190915285517fa011dceabc954f6714fb94a8ded740ecbe112ef1b6c2231fa34509459e3634559594929388938893919260a084019185019080838360005b838110156109be5781810151838201526020016109a6565b50505050905090810190601f1680156109eb5780820380516001836020036101000a031916815260200191505b509550505050505060405180910390a15050565b600081604051602001808263ffffffff1660e01b8152600401915050604051602081830303815290604052805190602001209050919050565b60008054604080516020810192909252818101929092527f0200000000000000000000000000000000000000000000000000000000000000604182015260e09290921b7fffffffff00000000000000000000000000000000000000000000000000000000166042830152805180830360260181526046909201905290565b60006060610ac48451610f5e565b84610acf8551610f5e565b8560405160200180807f6265616d2e636f6e74726163742e76616c00000000000000000000000000000081525060120185805190602001908083835b60208310610b2a5780518252601f199092019160209182019101610b0b565b51815160209384036101000a600019018019909216911617905287519190930192870191508083835b60208310610b725780518252601f199092019160209182019101610b53565b51815160209384036101000a600019018019909216911617905286519190930192860191508083835b60208310610bba5780518252601f199092019160209182019101610b9b565b51815160209384036101000a600019018019909216911617905285519190930192850191508083835b60208310610c025780518252601f199092019160209182019101610be3565b6001836020036101000a03801982511681845116808217855250505050505090500194505050505060405160208183030381529060405290506002816040518082805190602001908083835b60208310610c6d5780518252601f199092019160209182019101610c4e565b51815160209384036101000a60001901801990921691161790526040519190930194509192505080830381855afa158015610cac573d6000803e3d6000fd5b5050506040513d6020811015610cc157600080fd5b5051949350505050565b60006021825181610cd857fe5b0615610d2b576040805162461bcd60e51b815260206004820152601f60248201527f756e6578706563746564206c656e676874206f66207468652070726f6f662e00604482015290519081900360640190fd5b6120df825110610d6c5760405162461bcd60e51b81526004018080602001828103825260248152602001806111756024913960400191505060405180910390fd5b50816000805b83518161ffff161015610f5657806021850101519150838161ffff1681518110610d9857fe5b6020910101517fff00000000000000000000000000000000000000000000000000000000000000167f010000000000000000000000000000000000000000000000000000000000000014610e9c576002828460405160200180838152602001828152602001925050506040516020818303038152906040526040518082805190602001908083835b60208310610e3f5780518252601f199092019160209182019101610e20565b51815160209384036101000a60001901801990921691161790526040519190930194509192505080830381855afa158015610e7e573d6000803e3d6000fd5b5050506040513d6020811015610e9357600080fd5b50519250610f4e565b6002838360405160200180838152602001828152602001925050506040516020818303038152906040526040518082805190602001908083835b60208310610ef55780518252601f199092019160209182019101610ed6565b51815160209384036101000a60001901801990921691161790526040519190930194509192505080830381855afa158015610f34573d6000803e3d6000fd5b5050506040513d6020811015610f4957600080fd5b505192505b602101610d72565b505092915050565b6060805b60808310610ff05780836080176040516020018083805190602001908083835b60208310610fa15780518252601f199092019160209182019101610f82565b6001836020036101000a0380198251168184511680821785525050505050509050018260ff1660f81b8152600101925050506040516020818303038152906040529050600783901c9250610f62565b80836040516020018083805190602001908083835b602083106110245780518252601f199092019160209182019101611005565b6001836020036101000a0380198251168184511680821785525050505050509050018260ff1660f81b815260010192505050604051602081830303815290604052915050919050565b6040805160a081018252600080825260208201819052918101829052606080820152608081019190915290565b50805460018160011615610100020316600290046000825580601f106110c057506110de565b601f0160209004906000526020600020908101906110de919061115f565b50565b828054600181600116156101000203166002900490600052602060002090601f016020900481019282601f1061112257805160ff191683800117855561114f565b8280016001018555821561114f579182015b8281111561114f578251825591602001919060010190611134565b5061115b92915061115f565b5090565b5b8082111561115b576000815560010161116056fe746865206c656e677468206f66207468652070726f6f6620697320746f6f206c6f6e672ea2646970667358221220e21684939464341f97d6fbeaa2cc39486c8de1c5f50bc0077be39a60ef1622f864736f6c63430007020033",
  "immutableReferences": {},
  "source": "// SPDX-License-Identifier: MIT\npragma solidity ^0.7.2;\n\nimport \"./BeamHeader.sol\";\nimport \"./BeamUtils.sol\";\n\ncontract Pipe {\n    // config:\n    // remote cfg:\n    // uint32 packageMaxMsgs;\n    // uint64 packageMaxDiffHeightToClose;\n    // local cfg:\n    // bytes32 rulesRemote; // ?\n    // uint256 comissionPerMsg;\n    // uint256 stakeForRemoteMsg;\n    // uint64  disputePeriod;\n    // uint64  contenderWaitPeriod;\n\n    // incoming messages\n    struct RemoteMessage {\n        // header:\n        uint32 msgId;\n        // eth contract address \n        address msgContractReceiver;\n        // beam contract id\n        bytes32 msgContractSender;\n\n        // body\n        bytes value;\n        bool validated;\n    }\n\n    bytes32 m_remotePipeId;\n    mapping (bytes32 => RemoteMessage) m_remoteMessages;\n    uint32 m_localMsgCounter;\n\n    // LocalMessage {\n    //     // header:\n    //     uint32 msgId;\n    //     address msgContractSender; // eth contract address\n    //     bytes32 msgContractReceiver; // beam contract id\n\n    //     // msg body\n    //     uint64 value;\n    //     bytes receiver; // beam pubKey - 33 bytes\n    // }\n    event NewLocalMessage(uint32 msgId, address msgContractSender, bytes32 msgContractReceiver, bytes msgBody);\n\n    function setRemote(bytes32 remoteContractId)\n        public\n    {\n        m_remotePipeId = remoteContractId;\n    }\n\n    function getMsgKey(uint msgId)\n        private\n        pure\n        returns (bytes32 key)\n    {\n        key = keccak256(abi.encodePacked(uint32(msgId)));\n    }\n\n    // TODO: add support multiple msgs\n    function pushRemoteMessage(uint msgId,\n                               bytes32 msgContractSender,       // beam contract id\n                               address msgContractReceiver,     // eth contract address\n                               bytes memory messageBody)\n        public\n    {\n        bytes32 key = getMsgKey(msgId);\n\n        require(m_remoteMessages[key].value.length == 0, \"message is exist\");\n\n        m_remoteMessages[key].msgId = uint32(msgId);\n        m_remoteMessages[key].msgContractReceiver = msgContractReceiver;\n        m_remoteMessages[key].msgContractSender = msgContractSender;\n        m_remoteMessages[key].value = messageBody;\n        m_remoteMessages[key].validated = false;\n    }\n\n    function getBeamVariableKey(uint msgId)\n        private\n        view\n        returns (bytes memory)\n    {\n        // [contract_id,KeyTag::Internal(uint8 0),KeyType::OutCheckpoint(uint8 2),index_BE(uint32 'packageId')]\n        return abi.encodePacked(m_remotePipeId, uint8(0), uint8(2), uint32(msgId));\n    }\n\n    function getMsgHash(bytes32 previousHash, RemoteMessage memory message)\n        private\n        pure\n        returns (bytes32)\n    {\n        return sha256(abi.encodePacked(\"b.msg\\x00\",\n                      previousHash,\n                      // full msg size\n                      BeamUtils.encodeUint(20 + message.msgContractSender.length + message.value.length),\n                      // msgHdr: sender/receiver\n                      message.msgContractSender,\n                      message.msgContractReceiver,\n                      // msg body\n                      message.value));\n    }\n\n    function validateRemoteMessage(uint msgId, \n                                   // params of block\n                                   bytes32 prev,\n                                   bytes32 chainWork,\n                                   bytes32 kernels,\n                                   bytes32 definition,\n                                   uint64 height,\n                                   uint64 timestamp,\n                                   bytes memory pow,\n                                   bytes32 rulesHash,\n                                   bytes memory proof)\n        public\n    {\n        bytes32 key = getMsgKey(msgId);\n        require(!m_remoteMessages[key].validated, \"already verified.\");\n        \n        // validate block header & proof of msg\n        // TODO: uncomment when stop using FakePow\n        // require(BeamHeader.isValid(prev, chainWork, kernels, definition, height, timestamp, pow, rulesHash), 'invalid header.');\n\n        bytes memory variableKey = getBeamVariableKey(msgId);\n        bytes memory ecodedMsg = abi.encodePacked(m_remoteMessages[key].msgContractSender, m_remoteMessages[key].msgContractReceiver, m_remoteMessages[key].value);\n        bytes32 variableHash = BeamUtils.getContractVariableHash(variableKey, ecodedMsg);\n        bytes32 rootHash = BeamUtils.interpretMerkleProof(variableHash, proof);\n\n        require(rootHash == definition, \"invalid proof\");\n        m_remoteMessages[key].validated = true;\n    }\n\n    function getRemoteMessage(uint msgId)\n        public\n        returns (bytes memory)\n    {\n        bytes32 key = getMsgKey(msgId);\n        require(m_remoteMessages[key].validated, \"message should be validated\");\n\n        RemoteMessage memory tmp = m_remoteMessages[key];\n\n        delete m_remoteMessages[key];\n\n        return tmp.value;\n    }\n\n    function pushLocalMessage(bytes32 contractReceiver, bytes memory msgBody)\n        public\n    {\n        // TODO: pckgId\n        emit NewLocalMessage(m_localMsgCounter++, msg.sender, contractReceiver, msgBody);\n    }\n}",
  "sourcePath": "C:/projects/ethereum/eth_pipe/contracts/Pipe.sol",
  "compiler": {
    "name": "solc",
    "version": "0.7.2+commit.51b20bc0.Emscripten.clang"
  },
  "schemaVersion": "3.4.1",
  "updatedAt": "2021-07-09T10:13:50.059Z",
  "networkType": "ethereum",
  "devdoc": {
    "kind": "dev",
    "methods": {},
    "version": 1
  },
  "userdoc": {
    "kind": "user",
    "methods": {},
    "version": 1
  }
}